:020000040800F2
:10000000300C0020990400089D0100089F010008A1
:10001000A3010008A7010008AB01000800000000D0
:10002000000000000000000000000000AF01000818
:10003000B101000800000000B3010008B50100088C
:10004000B3040008B3040008B3040008B3040008B4
:10005000B3040008B3040008B3040008B3040008A4
:10006000B3040008B3040008B3040008B304000894
:10007000B3040008B3040008B3040008B304000884
:10008000B3040008B3040008B3040008B304000874
:10009000B3040008B3040008B3040008B304000864
:1000A000B3040008B3040008B3040008B304000854
:1000B0009F400008B3040008B3040008B30400081C
:1000C000B3040008B3040008B3040008B304000834
:1000D000B3040008092A0008F93A00089935000815
:1000E000B3040008B3040008B304000800F002F8E9
:1000F00000F03FF80AA090E8000C82448344AAF183
:100100000107DA4501D100F034F8AFF2090EBAE880
:100110000F0013F0010F18BFFB1A43F0010318473B
:10012000D0610000F0610000103A24BF78C878C1A7
:10013000FAD8520724BF30C830C144BF04680C60ED
:10014000704700000023002400250026103A28BF35
:1001500078C1FBD8520728BF30C148BF0B60704739
:10016000642904F0C782002070471FB51FBD10B579
:1001700010BD04F087FB1146FFF7F7FF00F00CF904
:1001800004F0A5FB03B4FFF7F2FF03BC02F05CFB35
:1001900030BF72B662B680F308887047704700BF00
:1001A000FEE700BFFEE700BFFEE700BFFEE77047C7
:1001B00070477047704700000CB500200190009018
:1001C0006C48006840F480306A49086000BF6948A4
:1001D000006800F4003000900198401C01900098E5
:1001E00018B90198B0F5A06FF1D16248006800F429
:1001F000003010B10120009001E000200090009834
:10020000012843D15C48006840F010005A4908605A
:100210000846006820F0030008600846006840F0C7
:1002200002000860534840685249486008464068E8
:1002300048600846406840F480604860084640686E
:1002400020F47C1048600846406840F4E81048609C
:100250000846006840F08070086000BF45480068AC
:1002600000F000700028F9D04248406820F00300F8
:10027000404948600846406840F00200486000BFBE
:100280003C48406800F00C000828F9D10CBD10B5BE
:10029000FFF792FF10BD10B53648006840F001002E
:1002A000344908600846406834490840314948608C
:1002B00008460068324908402E4908600846006830
:1002C00020F4802008600846406820F4FE00486062
:1002D0004FF41F008860FFF7DAFF4FF000602949F4
:1002E000086010BD10B5002100200022214B5B6882
:1002F00003F00C0121B1042906D0082928D107E018
:10030000214B224C236027E01F4B204C236023E02D
:10031000184B5B6803F47010164B5B6803F4803273
:10032000022303EB904022B9194B4343174C23603F
:100330000DE0104B5B6803F4003323B1144B4343CF
:10034000124C236003E0104B4343104C236003E046
:100350000D4B0E4C236000BF00BF064B5B68C3F320
:1003600003130C4CE15C094B1B68CB40074C23602A
:1003700010BD000000100240002002400000FFF805
:10038000FFFFF6FE08ED00E000127A0000000020FA
:1003900000093D00040000201FB502F08DF8012087
:1003A00002F0E4F903F01CFC01202F49086002F080
:1003B00069FB02F097FB022002F0EEF8642002F0E5
:1003C000B8F802F0CBFE642002F0B3F802F011FEA0
:1003D00041F61F41632002F04DFF8F2142F20F7062
:1003E00002F076FF03F022F903F00AFB00201F4918
:1003F000C1F88C014FF4FA7002F09BF84FF4FA70D8
:1004000002F097F802F079FA02F0B2FF18491948A1
:10041000CDE9021000210091174A184B18480191AC
:1004200003F0F4FB12481749CDE9020100200090C7
:10043000114A154B0190154803F0E8FB12E01448EF
:10044000007801280CD1002011490870002405E033
:100450001048007802F0FAFF601CC4B2022CF7DBEF
:1004600003F0B8FFEBE700008C01214200002142BD
:100470007B14AE47E17AA43FFA7E6ABC7493983F3E
:1004800060050020E17AA4BF749398BF980500200E
:10049000F8000020F900002009488047094800477B
:1004A000FEE7FEE7FEE7FEE7FEE7FEE7FEE7FEE724
:1004B000FEE7FEE704480549054A064B7047000081
:1004C00097020008ED00000830060020300C0020E4
:1004D000300800203008002031490143314A1160C2
:1004E000704770B5002100230F22C47804B32D4C4F
:1004F000246804F4E064C4F5E064210AC1F1040353
:10050000CA40447804FA03F1847814402143090175
:10051000254C0678A155047804F01F050124AC4051
:1005200005786D11AD0005F1E025C5F8004109E041
:10053000047804F01F050124AC401C4D06787611A8
:1005400045F8264070BD1A4A0A400243154B1B1F4E
:100550001A60704739B1134A121D12680243114BD9
:100560001B1D1A6006E00F4A121D126882430D4BD4
:100570001B1D1A607047042808D14FF0E02109695B
:1005800041F004014FF0E022116107E04FF0E0215B
:10059000096921F004014FF0E02211617047000069
:1005A0000000FA050CED00E000E400E080E100E06E
:1005B00080FFFF1F10B50446FA48844208D101218C
:1005C000401500F01DFE0021601500F019FE17E037
:1005D000F548844208D10121001500F011FE0021E8
:1005E000201500F00DFE0BE0F048844208D10121F7
:1005F000C80300F005FE00214FF4004000F000FEAB
:1006000010BD30B50246002000235068E84C204061
:100610000D790C6844EA0524204350609068E54C4D
:100620002040D1E902542C434D7944EA450420434B
:100630009060D06A20F470000C7C641EE4B2234306
:1006400040EA0350D06230BD002101600171417168
:100650008160C16001210174704721B1826842F05C
:100660000102826003E0826822F00102826070472A
:1006700021B1826842F48072826003E0826822F4D1
:1006800080728260704710B50023CBB21AB1446803
:100690001C43446002E044689C43446010BD816890
:1006A00041F0080181607047014600208A6802F02D
:1006B00008020AB1012000E000207047816841F083
:1006C000040181607047014600208A6802F004023C
:1006D0000AB1012000E00020704721B1826842F495
:1006E000A002826003E0826822F4A0028260704768
:1006F000014600208A6802F480020AB1012000E06D
:100700000020704710B50A4600210023416821F4FB
:100710006041531E41EA4331416010BD21B142683E
:1007200042F40062426003E0426822F400624260E8
:100730007047F0B504460D4600200021092D11DD5B
:10074000E068A5F10A0606EB4607072606FA07F158
:100750008843A5F10A0606EB460603FA06F10843AC
:10076000E0600CE0206905EB4507072606FA07F173
:10077000884305EB450603FA06F108432061072A82
:100780000FDA606B561E06EB86071F2606FA07F186
:100790008843561E06EB860605FA06F10843606399
:1007A00022E00D2A0FDA206BD61F06EB86071F26E4
:1007B00006FA07F18843D61F06EB860605FA06F10E
:1007C0000843206310E0E06AA2F10D0606EB8607FD
:1007D0001F2606FA07F18843A2F10D0606EB8606EE
:1007E00005FA06F10843E062F0BD21B1826842F4E7
:1007F0008012826003E0826822F480128260704777
:100800000146C86C80B2704766484C30006870473B
:1008100021B1426842F48062426003E0426822F4FF
:1008200080624260704721B1426842F48052426067
:1008300003E0426822F48052426070470A46002179
:10084000816821F4E04111438160704721B18268E1
:1008500042F40042826003E0826822F40042826037
:10086000704721B1826842F40212826003E082681C
:1008700022F4021282607047014600208A6802F466
:1008800000120AB1012000E000207047F0B50446D4
:100890001546002000220026092911DDE068A1F19B
:1008A0000A0707EB470C072707FA0CF29043A1F160
:1008B0000A0707EB470703FA07F21043E0600CE072
:1008C000206901EB410C072707FA0CF2904301EB7A
:1008D000410703FA07F210432061A06BC0F30156F1
:1008E000EF1C06F1010CA7EB0C0707EB870C1F2789
:1008F00007FA0CF29043EF1C06F1010CA7EB0C0772
:1009000007EB870701FA07F21043A063F0BD10B5AB
:100910000A4600210023816B21F44011531E41EA55
:100920000351816310BD08B5002300930090009B24
:100930000B440093009B1A6008BD08B502460020D6
:100940000090009201F12800009B1844009000984C
:10095000006880B208BD0A4600214168164B194064
:100960001143416070474162826270470A4600212C
:10097000416821F01F0111434160704740B10949AE
:100980000831096841F40001064A0832116007E0A5
:1009900004490831096821F40001024A0832116053
:1009A000704700000024014000280140003C014045
:1009B000FFFEF0FFFDF7F1FFFFFD3FFF02460020C5
:1009C00013680B400BB1012000E000207047CA43C0
:1009D0000260704770B502460020002300240B120D
:1009E0005568CEB205EA060415681D4015B10CB174
:1009F000012000E0002070BD00220A12D3430360F2
:100A00007047000010B5012000F014FC002000F039
:100A100011FC10BD2A49086070472949091F086068
:100A20007047274984310860704701460020254AF5
:100A300010884FF67F4210400843224A10807047CA
:100A4000014600201F4A10884FF68072104008436C
:100A50001C4A1080704708B500220092194A2C3AAF
:100A60000092009A02440092009A116008BD08B5F5
:100A700001460020009013482C380090009808444C
:100A800000900098008808BD0D489C300068C0B2F6
:100A900070470C480830008840F0010009490831CF
:100AA000088070470648A0300068C0B2704705480B
:100AB0000830008840F00200024908310880704781
:100AC00004860D422C6C004010B50446CC4884428C
:100AD00008D10121042000F093FB0021042000F044
:100AE0008FFB46E0C748844208D10121082000F06E
:100AF00087FB0021082000F083FB3AE0C2488442D3
:100B000008D10121102000F07BFB0021102000F013
:100B100077FB2EE0BD48844208D10121202000F05F
:100B20006FFB0021202000F06BFB22E0B8488442DC
:100B300008D10121402000F063FB0021402000F09B
:100B40005FFB16E0B348844208D10121802000F009
:100B500057FB0021802000F053FB0AE0AE4884429E
:100B600007D10121801500F04BFB0021A01500F0FA
:100B700047FB10BD10B50121084600F041FB0021E4
:100B8000012000F03DFB10BD2DE9F041024600259B
:100B90000026002000230024002791F803C00CF059
:100BA0000F0591F803C00CF0100CBCF1000F03D03E
:100BB00091F802C04CEA050591F800C0BCF1000FA5
:100BC00031D0146800202BE04FF0010C0CFA00F338
:100BD000B1F800C00CEA03069E4220D183004FF01A
:100BE0000F0C0CFA03F7BC4305FA03FC4CEA0404AF
:100BF00091F803C0BCF1280F06D14FF0010C0CFA9C
:100C000000FCC2F814C00AE091F803C0BCF1480F20
:100C100005D14FF0010C0CFA00FCC2F810C0401CCA
:100C20000828D1D31460B1F800C0BCF1FF0F34DD47
:100C3000546800202EE000F1080C4FF0010808FA7B
:100C40000CF3B1F800C00CEA03069E4221D18300E8
:100C50004FF00F0C0CFA03F7BC4305FA03FC4CEA07
:100C6000040491F803C0BCF1280F05D100F1080C71
:100C700008FA0CF8C2F8148091F803C0BCF1480FD0
:100C800007D100F1080C4FF0010808FA0CF8C2F87F
:100C90001080401C0828CED35460BDE8F0814FF688
:100CA000FF710180022181700421C17070470246EA
:100CB000002093680B400BB1012000E0002070473A
:100CC0000146886880B2704702460020D3680B4016
:100CD0000BB1012000E0002070470146C86880B2D7
:100CE000704701617047416170470AB1016100E0DE
:100CF00041617047C16070474FF480320A4382619E
:100D00008161826182698269704702460020434B9B
:100D100018684FF68073184040EA021008433F4BB2
:100D2000186070473E49C8617047F0B50A46002315
:100D300000240021002500F00046B6F1004F02D14A
:100D4000364EF16901E0354E7168C0F3034583B258
:100D500000F44016B6F5401F08D121F070612F4E07
:100D6000766826F070662D4F7E6012E000F48016E3
:100D7000B6F5801F06D1032606FA05F4A14341F01B
:100D8000706106E0460D360103FA06F6B14341F004
:100D9000706122B1460D360103FA06F6314300F0C8
:100DA0000046B6F1004F02D11C4EF16101E01B4E2E
:100DB0007160F0BD30B500228B071C0F0F2303FAC2
:100DC00004F2164B08338C1053F824309343134C21
:100DD00008348D1044F8253023468C1053F8243005
:100DE0008C07240F00FA04F423430C4C08348D10B4
:100DF00044F8253030BD0A49DC31086070470000F6
:100E000000080140000C01400010014000140140A6
:100E100000180140001C014000200140000001407A
:100E20000000204210B50121080700F0F6F900216A
:100E30004FF0805000F0F1F910BD2A490862704768
:100E400028490861704701460020274A106820F0B1
:100E5000E0000843106070472249A03108607047E5
:100E600010B502460020204B186820F00300104304
:100E700018601E4B1B6843F004031C4C23600129BF
:100E800001D130BF00E020BF184B1B6823F00403E2
:100E9000164C236010BD1448006840F0040012494D
:100EA00008600846006840F0020008600F480068CB
:100EB00040F004000D49086000BF00BF30BF70471C
:100EC00001460020084A52680A400AB1012000E0A9
:100ED000002070470449096841EA8001024A116014
:100EE0007047000000000E420070004010ED00E06E
:100EF000DF48006840F00100DD49086008464068AE
:100F0000DC490840DA49486008460068DA49084088
:100F1000D74908600846006820F480200860084629
:100F2000406820F4FE0048604FF41F00886070475E
:100F3000CF49096821F48031CD4A11601146096812
:100F400021F480211160B0F5803F03D0B0F5802FEF
:100F50000ED106E0C649096841F48031C44A1160E7
:100F600007E0C349096841F4A021C14A116000E0CB
:100F700000BF00BF704710B50146002200230020CB
:100F80004A11012A02D1BA4C236806E0022A02D192
:100F9000B74C236A01E0B64C636A01F01F020124DA
:100FA00094401C400CB1012000E0002010BD38B579
:100FB000002000900024002500BF3120FFF7DBFF58
:100FC00005460098401C00900098B0F5A06F01D035
:100FD000002DF2D03120FFF7CEFF08B1012400E050
:100FE0000024204638BD01460020A14A106820F0A8
:100FF000F80040EAC10010607047A04908607047DF
:10100000024600209A4B586820F47C1042EA010303
:101010001843974B586070479849086670470146D7
:101020000020934A506820F0030008435060704746
:101030008F48406800F00C007047014600208C4A41
:10104000506820F0F00008435060704701460020CF
:10105000874A506820F4E0600843506070470146BA
:101060000020834A506820F4605040EAC10050607C
:10107000704729B17E4A527A02437D4B5A7204E08E
:101080007B4A527A82437A4B5A7270477B49D831F5
:101090000860704701460020754A506820F44040BF
:1010A0000843506070470021714A20321170704A25
:1010B00082F82010012802D004280AD104E001217E
:1010C0006B4A2032117005E00521694A2032117007
:1010D00000E000BF00BF704769490860704764497D
:1010E000096A0143624A11627047654944390860E0
:1010F000704730B500210022002400235C4D6D684C
:1011000005F00C0121B1042905D0082923D105E0FF
:101110005C4D056022E05B4D05601FE0544D6D683D
:1011200005F47012524D6D6805F48034022505EB0C
:1011300092421CB9544D554305600BE04C4D6D680F
:1011400005F400351DB1504D5543056002E04D4D8D
:101150005543056002E04B4D056000BF00BF444DA4
:101160006D6805F0F0010909484D6B5C0568DD40CC
:1011700045603F4D6D6805F4E061090A434D6B5CC5
:101180004568DD4085603A4D6D6805F46051C90AD7
:101190003E4D6B5C4568DD40C560354D6D6805F4BE
:1011A0004041890B3A4D6B5CC568B5FBF3F50561B1
:1011B00030BD29B12E4A526902432D4B5A6104E0D9
:1011C0002B4A526982432A4B5A61704729B1284AF7
:1011D00092690243264B9A6104E0254A9269824350
:1011E000234B9A61704729B1214AD2690243204BAF
:1011F000DA6104E01E4AD26982431D4BDA6170470E
:1012000029B11B4AD2680243194BDA6004E0184A3C
:10121000D2688243164BDA60704729B1144A1269CA
:101220000243134B1A6104E0114A12698243104BC6
:101230001A61704712494039086070470F49C86405
:1012400070470B49C87170470948406A40F0807088
:1012500007494862704701460020054A92680A40E3
:101260000AB1012000E000207047014988727047F0
:10127000001002400000FFF8FFFFF6FE00004242AF
:101280008004424200127A0000093D0068000020FC
:101290007800002010B50446FE48844208D10121A0
:1012A000C014FFF7ADFF0021E014FFF7A9FFC4E071
:1012B000B4F1804F08D101210846FFF7AEFF0021AD
:1012C0000120FFF7AAFFB8E0F348844208D10121CA
:1012D0000220FFF7A2FF00210220FFF79EFFACE0F3
:1012E000EE48844208D101210420FFF796FF002137
:1012F0000420FFF792FFA0E0E948844208D10121D1
:101300000820FFF78AFF00210820FFF786FF94E0FE
:10131000E448844208D101211020FFF77EFF00211C
:101320001020FFF77AFF88E0DF48844208D10121CE
:101330002020FFF772FF00212020FFF76EFF7CE0E6
:10134000DA48844208D101214014FFF759FF0021F7
:101350006014FFF755FF70E0D548844209D10121A0
:10136000C804FFF74DFF00214FF40020FFF748FFAE
:1013700063E0D048844209D101210805FFF740FF0E
:1013800000214FF48010FFF73BFF56E0CA4884422B
:1013900009D101214805FFF733FF00214FF4001068
:1013A000FFF72EFF49E0C548844208D101214020C3
:1013B000FFF733FF00214020FFF72FFF3DE0C0483B
:1013C000844208D101218020FFF727FF00218020DF
:1013D000FFF723FF31E0BB48844208D1012180158B
:1013E000FFF71BFF0021A015FFF717FF25E0B64808
:1013F000844209D101210804FFF702FF00214FF4C4
:101400008030FFF7FDFE18E0B048844209D1012189
:101410004804FFF7F5FE00214FF40030FFF7F0FE1F
:101420000BE0AB48844208D101218804FFF7E8FEB5
:1014300000214FF48020FFF7E3FE10BD0022028858
:10144000944B98420ED0994B98420BD0B0F1804FFC
:1014500008D0914B984205D0904B984202D0904BC7
:10146000984204D14FF68F731A404B881A438D4B24
:10147000984207D08C4B984204D04FF6FF431A4055
:10148000CB881A4302808B8883850B880385814B28
:1014900098420BD0854B984208D08B4B984205D090
:1014A0008A4B984202D08A4B984201D10B7A03862C
:1014B00001238382704770B5002400220023058C2D
:1014C0004FF6FE7635400584028C8388048B4FF6F8
:1014D0008F752C40B51E2C400D882C43751E2A405C
:1014E0000D892A434D882A436A4DA8420BD06F4D7F
:1014F000A84208D0744DA84205D0744DA84202D02D
:10150000734DA84213D14FF6F7752A404D892A43EF
:101510004FF6FB752A408D882A434FF6FF652B4016
:101520004FF6FF552B408D892B43CD892B4383806C
:101530000483CD888586028470BD70B500240022A6
:101540000023058C4FF6EF7635400584028C8388A6
:10155000048B48F6FF752C404FF6FF452C400D8854
:101560004FF6FF7606EA05252C434FF6DF752A4035
:101570000D8906EA05152A434D8806EA05152A4312
:10158000444DA84202D0494DA8421DD14FF67F7567
:101590002A404D894FF6FF7606EA05152A434FF695
:1015A000BF752A408D8806EA05152A434FF6FF3598
:1015B0002B404FF2FF752B408D8906EA85052B43A2
:1015C000CD8906EA85052B4383800483CD88058772
:1015D000028470BD70B5002400220023058C4FF6F4
:1015E000FF6635400584028C8388848B4FF68F75A7
:1015F0002C404FF6FC752C400D882C434FF6FF55C0
:101600002A400D894FF6FF7606EA05252A434D88C4
:1016100006EA05252A431F4DA84202D0234DA842C1
:101620001DD14FF2FF752A404D894FF6FF7606EA2D
:1016300005252A434FF6FF352A408D8806EA052501
:101640002A434EF6FF752B404DF6FF752B408D89D2
:1016500006EA05152B43CD8906EA05152B43838041
:101660008483CD888587028470BD70B500220023F5
:101670000024058C4EF6FF7635400584038C848863
:10168000828B48F6FF752A404FF6FF452A400D88A9
:1016900020E00000002C0140000400400008004051
:1016A000000C0040001000400014004000340140D5
:1016B000004C01400050014000540140001800401F
:1016C000001C004000200040004001400044014058
:1016D000004801404FF6FF7606EA05252A434DF6FD
:1016E000FF752B400D8906EA05352B434D8806EA28
:1016F00005352B43FA4DA84202D0FA4DA84208D135
:101700004BF6FF752C408D894FF6FF7606EA85155E
:101710002C4384808283CD88A0F84050038470BD20
:10172000828B4FF2FF331A408283828B4FF6FF7316
:1017300003EA01231A4382837047F0B50C4615462D
:10174000002200210026078C4EF6FF7C07EA0C07DA
:101750000784828B018C4FF6FF7707EA043640F648
:10176000FF473A404FF6FF7707EA05273A434FF61F
:10177000FF7707EA03373A43D94FB8420ED0D94F23
:10178000B8420BD0B0F1804F08D0D74FB84205D047
:10179000D64FB84202D0D64FB84206D14DF6FF77A9
:1017A000394046F48057394305E047F6FF57394042
:1017B00044F48057394382830184F0BD828B4FF615
:1017C000F3731A408283828B0A4382837047F0B599
:1017D0000C461546002200210026078C4FF6FF6CB0
:1017E00007EA0C070784828B018C4FF6FF7707EA24
:1017F00004264FF60C773A404FF6FF7707EA0317B7
:101800002F433A43B64FB8420ED0B64FB8420BD032
:10181000B0F1804F08D0B44FB84205D0B34FB842B2
:1018200002D0B34FB84206D14FF6FF57394046F4C5
:101830008077394305E04FF2FF57394044F4807711
:10184000394382830184F0BD028B4FF2FF331A408B
:101850000283028B4FF6FF7303EA01231A430283CC
:101860007047F0B50C461546002200210026078C73
:101870004FF6EF7C07EA0C070784028B018C4FF6CA
:10188000FF7707EA041640F6FF473A404FF6FF7726
:1018900007EA03373A434FF6FF7707EA05273A434B
:1018A0008F4FB8420ED08F4FB8420BD0B0F1804F5F
:1018B00008D08D4FB84205D08C4FB84202D08C4F23
:1018C000B84206D14FF6DF77394046F0100739436A
:1018D00005E04FF65F77394044F010073943028343
:1018E0000184F0BD028B4FF6F3731A400283028B22
:1018F0000A4302837047F0B50C46154600220021CA
:10190000068C4FF6FE773E400684028B018C4FF624
:101910000C7632407E1C06EA03162E433243704E8C
:10192000B0420ED06F4EB0420BD0B0F1804F08D015
:101930006D4EB04205D06D4EB04202D06C4EB042FA
:1019400006D14FF6FD76314044F00106314305E003
:101950004FF6F576314044F00106314302830184AD
:10196000F0BD70B505460C465D4885420ED05D4819
:1019700085420BD0B5F1804F08D05B48854205D039
:101980005A48854202D05A48854200D100E000BF43
:10199000208850B92389A28861882846FFF7ABFFC9
:1019A000E1882846FFF79EFF25E0208804280AD119
:1019B0002389A28861882846FFF753FFE1882846DB
:1019C000FFF742FF17E0208808280AD12389A28860
:1019D00061882846FFF7FBFEE1882846FFF7EEFE08
:1019E00009E02389A28861882846FFF7A6FEE188DE
:1019F0002846FFF795FE70BD2DE9F04105460C46DF
:101A000000260127608808B9022600E00026A08889
:101A1000012801D1022700E001272088A0B92389ED
:101A2000A28861882846FFF766FFE1882846FFF70D
:101A300059FF23893A4631462846FFF712FFE188CD
:101A40002846FFF701FF13E02389A2886188284612
:101A5000FFF707FFE1882846FFF7F6FE23893A469D
:101A600031462846FFF747FFE1882846FFF73AFF4F
:101A7000BDE8F0810A884B881A438B881A43CB88CB
:101A80001A430B891A434B891A438B891A43A0F8CE
:101A9000442070474FF6FF71818000210180C18092
:101AA0004180017270470021018041808180C180A6
:101AB000018141818181C181704700210180418084
:101AC000012181800021C1800181704700210180B6
:101AD00041808180C1800181418181817047000006
:101AE000002C014000340140000400400008004088
:101AF000000C004021B1028842F00102028004E0A3
:101B000002884FF6FE731A400280704731B1B0F878
:101B1000442042F40042A0F8442005E0B0F84420FC
:101B2000C2F30E02A0F8442070471AB183890B4318
:101B3000838102E083898B43838170478182704770
:101B400041EA0203A0F8483070471AB183890B4379
:101B5000838102E083898B438381704701894FF63B
:101B6000F8721140018170470A46002101894FF641
:101B70008F73194011430181704730B504460D46FB
:101B800029462046FFF7F0FF208940F0070020811A
:101B900030BD2DE9F04104460D4616461F46602D26
:101BA00006D13B46012231462046FFF75AFE05E0AA
:101BB0003B46012231462046FFF79DFE294620463E
:101BC000FFF7D2FF208940F007002081BDE8F081B7
:101BD00030B50C4600210189C9B24FF6FF7505EA00
:101BE0000325154325432943018130BD2DE9F041EB
:101BF00005460E4617469846002443463A46314667
:101C00002846FFF7E5FF2C894FF6F870044044F0B2
:101C100007044FF68F70044044F070042C81BDE837
:101C2000F081F0B504460D4616461F463B46324647
:101C300029462046FFF7CCFF208940F480402081D0
:101C4000F0BD0185828270470A46002101884FF667
:101C50008F731940114301807047F0B50C4615464B
:101C60001E460021002200230189028B038C4FF6BF
:101C7000F877394021434FF6FC473A4040F20117CC
:101C80003A434FF6DD773B404FF6FF7707EA0617FA
:101C90002F433B43018102830384F0BD0A460021A8
:101CA000018B4FF68F7319401143018370470A4629
:101CB0000021018B48F6FF7319404FF6FF7303EACA
:101CC00002231943018370470A460021818B4FF696
:101CD0008F7319401143818370470A460021818B1D
:101CE00048F6FF7319404FF6FF7303EA02231943C6
:101CF0008183704721B1028842F08002028004E0B3
:101D000002884FF67F731A400280704721B18288A3
:101D100042F00402828004E082884FF6FB731A408E
:101D20008280704721B1828842F00802828004E0FC
:101D300082884FF6F7731A408280704721B18288FB
:101D400042F00102828004E082884FF6FE731A405E
:101D5000828070470A460021018B4FF6F7731940C5
:101D60001143018370470A460021018B4FF2FF7334
:101D700019404FF6FF7303EA0223194301837047AA
:101D80000A460021818B4FF6F77319401143818376
:101D900070470A460021818B4FF2FF7319404FF6BE
:101DA000FF7303EA02231943818370470A46002127
:101DB000018B4FF6FB7319401143018370470A46AC
:101DC0000021018B4FF6FF3319404FF6FF7303EAF2
:101DD00002231943018370470A460021818B4FF685
:101DE000FB7319401143818370470A460021818BA0
:101DF0004FF6FF3319404FF6FF7303EA02231943EE
:101E0000818370470A460021018B4FF67F7319408A
:101E10001143018370470A460021018BC1F30E0173
:101E20004FF6FF7303EA02231943018370470A4602
:101E30000021818B4FF67F731940114381837047D6
:101E40000A460021818BC1F30E014FF6FF7303EAAE
:101E500002231943818370470A460021018C4FF603
:101E6000FD7319401143018470470A460021018C1B
:101E70004FF6F77319401143018470470A46002159
:101E8000018C4FF6DF7319404FF6FF7303EA02131C
:101E90001943018470470A460021018C4FF67F7375
:101EA00019404FF6FF7303EA021319430184704788
:101EB0000A460021018C4FF6FF5319404FF6FF737D
:101EC00003EA02231943018470470A460021018C6A
:101ED0004FF2FF7319404FF6FF7303EA02231943D1
:101EE000018470470A460021018C4DF6FF731940AA
:101EF0004FF6FF7303EA023319430184704730B58C
:101F0000002301248C40A3B2048C9C430484048CE1
:101F100002FA01F5ADB22C43048430BD30B5002384
:101F200004248C40A3B2048C9C430484048C02FAE5
:101F300001F5ADB22C43048430BD70B503460020DA
:101F400000241846183001258D40ACB21D8CA543E5
:101F50001D8409B1082909D100EB6100056825F04D
:101F6000700505600568154305600EE00D1FC5F39B
:101F70004E052844056825F4E045056005684FF6E0
:101F8000FF7606EA02263543056070BD21B102885E
:101F900042F00202028004E002884FF6FD731A400C
:101FA0000280704721B1028842F00402028004E0FE
:101FB00002884FF6FB731A400280704721B1828875
:101FC00042F08002828004E082884FF67F731A40DC
:101FD0008280704702884FF6F7731A4002800288A9
:101FE0000A430280704782884FF68F731A408280BE
:101FF00082880A438280704702894FF6F8731A403C
:10200000028102890A430281704702894FF67F7379
:102010001A40028102890A43028170478184704715
:102020008185704781867047018770478187704737
:10203000A0F84010704702884FF6FF431A40028014
:1020400002880A43028070470146888E7047014625
:10205000088F70470146888F70470146B1F84000ED
:1020600070470146888C70470146088D70470246CC
:102070000020138A0B400BB1012000E000207047C4
:10208000CA430282704730B5024600200023002474
:10209000158A05EA0103958905EA010413B10CB11B
:1020A000012000E0002030BDCA43028270470000DA
:1020B00010B50446FB48844209D101218803FFF78B
:1020C0009FF800214FF48040FFF79AF832E0F6487D
:1020D000844209D101214804FFF79FF800214FF401
:1020E0000030FFF79AF825E0F048844209D1012139
:1020F0008804FFF792F800214FF48020FFF78DF855
:1021000018E0EB48844209D10121C804FFF785F8A3
:1021100000214FF40020FFF780F80BE0E5488442EF
:1021200008D101210805FFF778F800214FF480104D
:10213000FFF773F810BD2DE9F04786B005460E464F
:102140000024A24600BFA1460027B08900B100BF0D
:102150002F462C8A4CF6FF700440F08804432C82F2
:10216000AC894EF6F3100440B08831890843718978
:1021700008430443AC81AC8A4FF6FF400440B08969
:102180000443AC8201A8FEF7B4FFC648874202D1DF
:10219000DDF810A001E0DDF80CA0A88900F40040F3
:1021A00040B10AEBCA0000EB0A1031684900B0FBED
:1021B000F1F807E00AEBCA0000EB0A103168890069
:1021C000B0FBF1F86420B8FBF0F0040120096421B1
:1021D00001FB1089A88900F4004040B1322000EBD7
:1021E000C900B0FBF1F000F00700044308E0322022
:1021F00000EB09106421B0FBF1F000F00F00044384
:102200002C8106B0BDE8F0874FF416510160002123
:102210008180C18001810C21418100218181704731
:1022200010B502460020108A4FF2FF0318400B88B9
:102230004C8823438C882343CC8823431843108243
:1022400010BD0021018041808180C180704721B193
:10225000828942F40052828104E082894DF6FF7344
:102260001A4082817047F0B50346002400260025FD
:10227000002040F66A17B94200D100BF1846C1F3EA
:10228000421401F01F06012707FA06F5012C01D1BF
:102290000C3004E0022C01D1103000E014301AB1EF
:1022A00007682F43076002E00768AF430760F0BD8F
:1022B0001AB1838A0B43838202E0838A8B43838231
:1022C0007047028A4FF6F0731A400282028A0A436C
:1022D0000282704782894FF2FF731A40828182899D
:1022E0000A438281704721B1828942F002028281D1
:1022F00004E082894FF6FD731A4082817047028A9A
:102300004FF6DF731A400282028A0A430282704744
:1023100021B1028A42F48042028204E0028A4BF632
:10232000FF731A4002827047C1F30802828070472F
:1023300001468888C0F308007047818941F0010197
:1023400081817047028BD2B20283028B42EA012262
:1023500002837047028B02F47F420283028B0A439E
:102360000283704721B1828A42F02002828204E017
:10237000828A4FF6DF731A408282704721B1828AC7
:1023800042F01002828204E0828A4FF6EF731A4014
:102390008282704721B1828A42F00802828204E080
:1023A000828A4FF6F7731A408282704721B1828980
:1023B00042F40042828103E08289C2F30E028281EC
:1023C000704721B1828A42F40062828204E0828AEC
:1023D0004FF2FF731A4082827047828A4FF6FB7376
:1023E0001A408282828A0A438282704721B1828A9D
:1023F00042F00202828204E0828A4FF6FD731A40A4
:102400008282704702460020B1F5007F00D100BFF4
:1024100013880B400BB1012000E00020704701F44D
:102420000072B2F5007F00D100BFCA43028070473E
:1024300070B50246002400230025002040F66A16ED
:10244000B14200D100BFC1F3421501F01F030126C4
:1024500006FA03F3012D02D19689334006E0022DDE
:1024600002D1168A334001E0968A33400C120126CD
:1024700006FA04F41688344013B10CB1012000E0D0
:10248000002070BD10B50022002340F66A14A1425E
:1024900000D100BF0A1201249440A3B2DC4304809F
:1024A00010BD0000003801400044004000480040DA
:1024B000004C00400050004010B56FF00400FEF7E3
:1024C0005AF82E4800682E49B0FBF1F02D490870EB
:1024D0000846007800EB4001C1EBC0104FF6FF71D9
:1024E00001EAC0002849088010BD0146254A12783B
:1024F0004A434FF0E0235A6100229A611A4612695A
:1025000042F001021A6100BF4FF0E022106900F0B2
:1025100001021AB100F48032002AF5D04FF0E02217
:10252000126922F001024FF0E0231A6100229A6141
:1025300070470146144A12884A434FF0E0235A611B
:1025400000229A611A46126942F001021A6100BF24
:102550004FF0E022106900F001021AB100F480325D
:10256000002AF5D04FF0E022126922F001024FF06C
:10257000E0231A6100229A617047000000000020E9
:1025800000127A007C0000207E000020A34A0A404E
:102590000243A34B1A6070470146072323EA010256
:1025A00012029F4B1B1D18684FF6FF0318409D4BEE
:1025B000184310439A4B1B1D186070472DE9F041DA
:1025C0000746884614461D462846FFF7E5FFC5F135
:1025D000040007FA00F60F20284100EA080006432D
:1025E00006F00F06E21704EBD2625211920002F1DC
:1025F000E022D2F800212146E31704EBD3635B11FC
:10260000A4EB431C012303FA0CF31A432046E317FF
:1026100004EBD3635B119B0003F1E023C3F80021BB
:102620008148005D40EA06107F490855BDE8F08109
:1026300070B504460B46CE1701EB9676C6F38700BD
:10264000CE1701EB9676B610A1EB8606B606350ED0
:10265000764B9B6943F00103744EB3614FEAB63386
:1026600053F820300F26AE40B343714E46F8203069
:10267000334653F8203004FA05F61E436C4B43F8FA
:1026800020606C4B1B6801268E403343694E3360DB
:1026900002F0010343B1674B0C331B6801268E40E7
:1026A0003343644E0C36336002F0020343B1614B96
:1026B00008331E6801238B401E435E4B08331E60A7
:1026C00070BD00B5002059490861C86014204861F8
:1026D00000208861C8610846006840F00100086079
:1026E0000846406854490840504948600846006818
:1026F000524908404D4908600846006820F480208F
:1027000008600846406820F4FE00486000208860A9
:1027100000214FF00060FFF739FF00BD10B54048C1
:102720000830006840F004003D49083108603F4827
:10273000C06940F080503D49C8614148406840F45C
:1027400080703F4948600846006840F00400086017
:102750000846006840F002000860FDF719FD10BD52
:102760003048001D2E49091D086070470146490682
:102770002E4A926942F001022C4B9A612C4A083A87
:10278000526822F0E0622A4B083B5A601A465268AF
:102790000A435A60704730B504460025FFF791FFA1
:1027A0002248006840F480302049086000BF1F487C
:1027B0000068400C0028FAD04FF480601B49486044
:1027C000A01EC4B20846406840EA844048600846FB
:1027D000406840F4803048601A48006840F0320099
:1027E000184908601148006840F080700F4908607F
:1027F00000BF0E480068400E0028FAD00B48406821
:1028000040F002000949486005E008484068C0F30C
:10281000870505F00305022DF7D130BD80FFFF1FAE
:1028200008ED00E00000FA0500E400E000100240BE
:1028300008000140000401400000FFF8FFFFF6FE21
:10284000007000400020024000BF704700BF884A6F
:10285000128802F04002002AF9D0C2B2844B1B1D3C
:102860001A80704710B586B00446012144F2040076
:10287000FEF7ACFC4FF40070ADF8140003208DF8A7
:10288000160018208DF8170005A97A48FEF77CF984
:102890004FF48060ADF8140004208DF8170005A9EE
:1028A0007448FEF771F901940020ADF80800ADF806
:1028B0000A00ADF80C00ADF810000C20ADF80E00C9
:1028C00001A96B48FFF737FC01216948FFF7BFFCFE
:1028D000002240F225516648FFF7C5FC25208DF8FF
:1028E000000001208DF803008DF801008DF8020032
:1028F0006846FDF7F6FD06B010BD00B587B00121B2
:102900000420FEF763FC01218803FEF75FFC18201A
:102910008DF81B004FF40070ADF8180001208DF801
:102920001A0006A95348FEF72FF904208DF81B0062
:102930000002ADF8180001208DF81A0006A94D48D4
:10294000FEF722F94FF4E13002900020ADF81400B8
:102950000C20ADF812000020ADF81000ADF80E000C
:10296000ADF80C0002A94248FFF7E5FB0121404801
:10297000FFF76DFC012240F225513D48FFF773FC43
:1029800025208DF8040001208DF807008DF8050042
:102990008DF8060001A8FDF7A4FD07B000BD34497D
:1029A000091D088000BF3249098801F04001002953
:1029B000F9D0704710B50446412C07D12E492F4855
:1029C000006802F019FC2D4908601CE0612C07D159
:1029D00029492A48006802F0E3FE2849086012E00D
:1029E000422C07D124492648006802F005FC2449FE
:1029F000086008E0622C06D11F492148006802F0F7
:102A0000CFFE1F49086010BD10B540F2255118488F
:102A1000FFF70EFD28B11649091D0988C8B200F05C
:102A20003EFD10BD10B502460B46002454405C40EC
:102A3000FF20FFF7B4FFFE20FFF7B1FFD0B2FFF792
:102A4000AEFFD8B2FFF7ABFF0020FFF7A8FF0020D2
:102A5000FFF7A5FF0020FFF7A2FF0020FFF79FFF71
:102A60000020FFF79CFFE0B2FFF799FF10BD0000C8
:102A700000380140000801400000204138000020DB
:102A80003C00002008B501210420FEF79FFB102028
:102A9000ADF800008DF8030003208DF802006946B0
:102AA0000C48FEF771F808BD18B900210A4A1160F8
:102AB0000FE00A490968491C084A1160814208D19F
:102AC00005490968C943064AC2F890110021034A22
:102AD00011607047000801409001214288000020E9
:102AE0000000214208B501210420FEF76FFB6020A1
:102AF000ADF8000048208DF8030069467748FEF7DE
:102B000043F801211020FEF761FB4FF46040ADF85F
:102B1000000048208DF8030069467148FEF734F83C
:102B20000120FEF78AF90020FEF7BDFA0020FDF72C
:102B300074FF0020FEF781F908BD0146694800686E
:102B400028B969480088401C674A108002E00020CC
:102B5000654A10806348006828B96448007810B955
:102B60000120624A107062480078B0B95F4800786E
:102B7000012807D15F480078401C5E4A1070012090
:102B80005B4A10705B480078022806D10020594A41
:102B90001070594A1080022070475248006801287E
:102BA00004D10020514A1070514A107051480078E9
:102BB00001281CD150480088401C4F4A1080104604
:102BC000008888420ADD48480088884206DA0020EA
:102BD000484A1070484A10800120DDE742480088CA
:102BE000884204DD0020434A1070434A10800020D0
:102BF000D2E742480078002831D03A48006870B1E6
:102C00003F48006858B13748001D006838B13C485B
:102C1000001F006818B13A4808380068F8B9002069
:102C2000364A10702F48006808B9012115E0344871
:102C3000006808B9022110E031480838006808B976
:102C400003210AE02748001D006808B9042104E0B8
:102C50002B48001F006800B90521C8B27047214801
:102C60000068012814D126480068012810D11D48A9
:102C7000001D006801280BD12148001F00680128B1
:102C800006D11F4808380068012801D11B4A10707E
:102C90000020E3E71B48008840B91248006828B9C3
:102CA00019480088401C1849088002E00020164995
:102CB000088015480088C82807DD012011490880D0
:102CC000002011490880012070470E480088012823
:102CD00002D100200B4908800020F5E700080140E0
:102CE0000010014014012142920000208C000020BD
:102CF0008D0000208E000020900000209400002015
:102D00003C012242980000209600002010B50A469F
:102D10001AB10123FE4C236002E00023FC4C236027
:102D2000002114E00023FB4C236000F080031BB162
:102D30000123241F236003E00023F64C241F23609B
:102D40000123F44C23604306180E4B1CD9B208290A
:102D5000E8DB0123EE4C236010BD30B500241CE0FD
:102D600004F1B001C8B20021FFF7D0FF00210846EE
:102D7000FFF7CCFF00211020FFF7C8FF002508E077
:102D8000E54901EBC501085D0121FFF7BFFF681CA4
:102D9000C5B2802DF4DB601CC4B2082CE0DB30BD72
:102DA00000B500218D20FFF7B1FF00211420FFF7AF
:102DB000ADFF0021AF20FFF7A9FF00BD00B5002146
:102DC0008D20FFF7A3FF00211020FFF79FFF0021B8
:102DD000AE20FFF79BFF00BD30B500240CE00025BE
:102DE00006E00020CC4901EBC5010855681CC5B2BE
:102DF000802DF6DB601CC4B2082CF0DBFFF7ADFFC2
:102E000030BDF0B5144600267F2801DC3F2900DDE7
:102E1000F0BD0B46CF1701EB5777FF10C7F107073F
:102E2000FAB2CF1701EB5777FF10A1EBC707FDB23E
:102E3000C5F107070123BB40DEB24CB1B64B03EB33
:102E4000C0039B5C3343B44F07EBC007BB5408E09F
:102E5000B14B03EBC0039B5CB343AF4F07EBC00721
:102E6000BB5400BFD4E72DE9F04F80460C46154611
:102E70001E46A346A5F12000C5B200273EE00C2E59
:102E800007D105EB4500A54901EB800010F807903C
:102E900004E0A34800EB051010F807904FF0000A7B
:102EA00026E009F0800028B121464046099AFFF744
:102EB000A8FF09E0099808B9012000E000200246B7
:102EC00021464046FFF79DFF4FEA49604FEA1069EF
:102ED000601CC4B2A4EB0B00B04205D15C4608F103
:102EE000010000F0FF0806E00AF1010000F0FF0A0F
:102EF000BAF1080FD5DB00BF781CC7B2B742BEDB02
:102F0000BDE8F08F10B50246012000E050430B1ED3
:102F1000A1F10104E1B2F9D110BD2DE9FF4F81B05B
:102F2000074691461E460E9D4FF0000A002439E0E8
:102F3000301B401EC1B20A20FFF7E4FFB9FBF0F0DE
:102F40000A21B0FBF1F201FB1208BAF1000F16D111
:102F5000701EA04213DDB8F1000F0ED10120AB4668
:102F600005EBDB71491001FB04710090C8B22B46E0
:102F700020220299FFF777FF12E04FF0010A0120AB
:102F8000AB4605EBDB71491001FB04710090C8B240
:102F900008F13001CAB22B460299FFF764FF00BF67
:102FA000601CC4B2B442C3DB05B0BDE8F08F78B595
:102FB00005460E46144618E07A2D03DD002506F17D
:102FC0001000C6B23A2E04DD002005460646FFF783
:102FD00003FF0120009022780C2331462846FFF79A
:102FE00042FF05F10800C5B2641C20780028E3D137
:102FF00078BD08B501210820FEF7E8F83820ADF8C3
:10300000000010208DF8030002208DF802006946B0
:103010004448FDF7B9FD01210420FEF7D7F84FF42D
:103020000040ADF8000002208DF8020010208DF85D
:10303000030069463C48FDF7A7FD0120FDF7FDFEB2
:103040000020FEF730F80020FDF7E7FC0020FDF738
:10305000F4FE00202F49083908606420FFF769FA60
:1030600001203249C1F88C010021AE20FFF74EFE4D
:103070000021D520FFF74AFE00215020FFF746FE31
:103080000021A820FFF742FE00213F20FFF73EFE6F
:103090000021D320FFF73AFE00210846FFF736FE55
:1030A00000214020FFF732FE00218D20FFF72EFE89
:1030B00000211420FFF72AFE00212020FFF726FE22
:1030C00000210220FFF722FE0021A120FFF71EFEB3
:1030D0000021C020FFF71AFE0021DA20FFF716FEBC
:1030E00000211220FFF712FE00218120FFF70EFEC3
:1030F0000021EF20FFF70AFE0021D920FFF706FE8E
:103100000021F120FFF702FE0021DB2010E000008B
:10311000BC01214294812142280100208A580008E4
:10312000FE5C0008000C01400008014000802142C4
:10313000FFF7ECFD00213020FFF7E8FD0021A4207F
:10314000FFF7E4FD0021A620FFF7E0FD0021AF20FE
:10315000FFF7DCFDFFF740FE08BD000000B587B0BB
:1031600001214FF40170FEF731F84FF40040FDF7F4
:1031700091FF0220ADF8040000208DF8070001A99E
:103180003648FDF701FD3648FDF714FA002002909D
:103190008DF80C008DF80D004FF460200490002095
:1031A000059001208DF8180002A92D48FDF729FA95
:1031B00001212B48FDF751FA2948FDF770FA00BFAD
:1031C0002748FDF771FA0028FAD12548FDF776FA6D
:1031D00000BF2348FDF777FA0028FAD107B000BDF9
:1031E00010B504460723012221461D48FDF7A1FA28
:1031F00001211B48FDF771FA00BF02211848FDF7B5
:10320000DDFB0028F9D01648FDF7FAFA10BD2DE9CC
:10321000F04F85B00120FFF7E3FF019001F0C5FDFD
:103220004FF066320F4BCDE9020101F0D1FD80462F
:1032300000220D4B01F0CCFD064600220B4B01F0A5
:10324000C7FD044600220A4B01F028FC824601F02B
:103250007DFD0490049805B0BDE8F08F00080140A2
:103260000024014066660A400000264000005940E4
:103270000000B0407FB505460C4601210846FDF729
:10328000B2FFADF80850ADF804400020ADF80A00D8
:10329000ADF8060001A94FF08040FEF7CFF80122FB
:1032A00011469007FEF741FC1C208DF8000000201D
:1032B0008DF8010001208DF802008DF803006846AA
:1032C000FDF70FF901218807FEF714FC7FBD000010
:1032D00030B589B005460C4601210420FDF783FF77
:1032E00001210820FDF772FF4FF44070ADF8200077
:1032F00018208DF8230002208DF8220008A91A4812
:10330000FDF742FCADF81850ADF814400020ADF8C0
:103310001A00ADF8160005A91448FEF78FF86020D2
:10332000ADF804000120ADF806000020ADF80A0059
:10333000ADF80C0001A90D48FEF74CF901A90B48A6
:10334000FEF793F908210948FEF71AFD08210748FE
:10335000FEF71FFD01210548FEF7CCFC01210348C3
:10336000FEF7C8FB09B030BD000C0140000800406A
:1033700000B587B001210820FDF728FF012188044E
:10338000FDF731FF18208DF81B004FF48060ADF879
:10339000180001208DF81A0006A99948FDF7F4FBE2
:1033A00004219748FDF79FFC04208DF81B00400284
:1033B000ADF8180001208DF81A0006A99048FDF715
:1033C000E3FB4FF4165002900020ADF814000C20DF
:1033D000ADF812000020ADF81000ADF80E00ADF809
:1033E0000C0002A98748FEF7A6FE01218548FEF7DA
:1033F0002EFF012240F225518248FEF734FF27209C
:103400008DF8040001208DF807008DF805008DF877
:10341000060001A8FDF765F807B000BD10B501462C
:1034200000220B46002002E01C5C6240401C022887
:10343000FAD3104610BD7349091D088000BF7149B9
:10344000098801F040010029F9D0704730B50446E1
:10345000AF206D490870FA20C87008464470FFF725
:10346000DDFF694988700D46002205E02878FFF7E6
:10347000E2FF6D1C501CC2B2644800788242F5DB4A
:1034800030BD10B502460B460020002100BF03E00E
:10349000545C60404C1CA1B29942F9DB10BD70B580
:1034A00004465B485B4909784454CC2C03D0594806
:1034B0000078002805DD57480078401C5549087001
:1034C00002E00020534908705248007852490978B8
:1034D000884260D100204F4908704F480078401E54
:1034E0004B49085CDD2856D14B480078801E81B2DC
:1034F0004748FFF7C6FF48490978891E444A515C8E
:10350000884248D1454D002005E04149095C2970B9
:103510006D1C411CC8B2404909788842F5DB3F4820
:10352000B0F80100EF280CD13C48B0F80300FE28A9
:1035300007D101203A490870384840793949087064
:1035400028E03649B1F8010001F0DAFF06464FF0F5
:10355000804101F0BFFE344908603049B1F80300F2
:1035600001F0CEFF06464FF0804101F0B3FE2E4938
:1035700048602A49B1F8050001F0C2FF2A49886075
:103580002649B1F8070001F0BBFF2749C8600020B9
:103590004874087400BF70BD10B540F22551194839
:1035A000FEF746FF28B11749091D0988C8B2FFF781
:1035B00076FF10BD10B502460B46002454405C4017
:1035C000FF20FFF738FFFE20FFF735FFD0B2FFF7EF
:1035D00032FFD8B2FFF72FFF0020FFF72CFF0020AB
:1035E000FFF729FF0020FFF726FF0020FFF723FF4A
:1035F0000020FFF720FFE0B2FFF71DFF10BD000025
:10360000000C0140004800409A0000209E0000206D
:1036100048050020A2000020A1000020280500206D
:103620009F000020A00000203405002008B50121E3
:103630000820FDF7CBFD48208DF803004FF4004033
:10364000ADF8000003208DF802006946F348FDF74D
:103650009BFA10208DF803004FF4E040ADF8000015
:1036600003208DF802006946EC48FDF78DFA08BD8D
:1036700038B50446012000900020E9494870012037
:1036800000902EE0BDF80000204018B10120E5496F
:10369000086002E00020E34908600120E1490839A0
:1036A00008600520FEF721FF0020DF49C1F8B001C6
:1036B0000520FEF71AFF0120DB49C1F8B0010846DA
:1036C000D0F83C0130B1D6484078BDF8001008432E
:1036D000D3494870BDF800004FF6FF7101EA400081
:1036E0000090BDF80000FF28CCDD1020FEF7FDFEA5
:1036F00038BD10B50020CB49091F0860CB490878B8
:10370000FFF7B6FFC9494878FFF7B2FF0120C64965
:10371000C1F8B401C2484078732801D1002010BD1F
:103720000120FCE71CB50020019001200090002042
:10373000BC49091F0860BD490878FFF799FFBB49DC
:103740004878FFF795FF0220019036E001200090B5
:1037500027E00120B349083908600520FEF7C5FEBF
:103760000020B149C1F8B0010520FEF7BEFE0120DE
:10377000AD49C1F8B0010846D0F83C0150B1A848A5
:103780009DF80410405CBDF800100843A4499DF862
:1037900004208854BDF800004FF6FF7101EA400094
:1037A0000090BDF80000FF28D3DD1020FEF79DFE3D
:1037B0009DF80400401CC0B201909DF80400092847
:1037C000C4DB01209749091F08601CBD002004E0EC
:1037D0000021934A1154411CC8B20928F8DB7047F4
:1037E00010B5FFF7F3FFFFF79DFF8D48C0788C49B8
:1037F000097940EA01208E49088000240FE08D48B5
:1038000010F81400401E012101FA00F088490988CF
:10381000084010B9601CC0B210BD601CC4B2102CAE
:10382000EDDB0020F8E701467D48405C704770B54D
:1038300005460C4600207B49091F08601020FEF752
:1038400054FE0120FFF714FF4220FFF711FF002074
:10385000FFF70EFF2846FFF70BFF2046FFF708FF94
:103860000020FFF705FF0020FFF702FF0020FFF711
:10387000FFFE0020FFF7FCFE01206B49C1F8B401F8
:103880001020FEF732FE70BD10B500206549091FFB
:1038900008601020FEF729FE0120FFF7E9FE422014
:1038A000FFF7E6FE0020FFF7E3FE0020FFF7E0FE53
:1038B0000020FFF7DDFE01205B49C1F8B4011020B4
:1038C000FEF713FE10BD10B500205649091F086011
:1038D0001020FEF70AFE0120FFF7CAFE4320FFF783
:1038E000C7FE0020FFF7C4FE0120FFF7C1FE002045
:1038F000FFF7BEFE0020FFF7BBFE0020FFF7B8FE7B
:103900000020FFF7B5FE0020FFF7B2FE0120464978
:10391000C1F8B4011020FEF7E8FD10BD10B500207D
:103920004049091F08600120FFF7A2FE4420FFF76D
:103930009FFE0020FFF79CFE0020FFF799FE03206A
:10394000FFF796FE0020FFF793FE0020FFF790FEA2
:103950000020FFF78DFE0020FFF78AFE012032498C
:10396000C1F8B4011020FEF7C0FD10BD10B5002055
:103970002C49091F08601020FEF7B7FD0120FFF752
:1039800077FE4D20FFF774FE0020FFF771FE002048
:10399000FFF76EFE0120FFF76BFE01202249C1F800
:1039A000B4011020FEF7A1FD10BD10B500201D4987
:1039B000091F08601020FEF798FD0120FFF758FE50
:1039C0004320FFF755FE0020FFF752FE0020FFF7CF
:1039D0004FFE5A20FFF74CFE5A20FFF749FE5A20AF
:1039E000FFF746FE5A20FFF743FE5A20FFF740FE3E
:1039F00001200D49C1F8B4011020FEF776FD10BD7D
:103A000010B5FFF741FFFFF73FFFFFF73DFFFFF75F
:103A10005AFFFFF783FFFFF7C8FF10BD000C0140FE
:103A200053050020B881214200802142A6000020D9
:103A3000A4000020A800002000B587B001210420C8
:103A4000FDF7C4FB01214804FDF7CDFB18208DF8DC
:103A50001B000420ADF8180001208DF81A0006A9FB
:103A60005748FDF791F804215548FDF73CF904202B
:103A70008DF81B000820ADF8180001208DF81A0001
:103A800006A94F48FDF780F84FF4E130029000207E
:103A9000ADF814000C20ADF812000020ADF81000B5
:103AA000ADF80E00ADF80C0002A94648FEF743FB46
:103AB00001214448FEF7CBFB012240F22551414849
:103AC000FEF7D1FB26208DF8040001208DF80700B9
:103AD0008DF805008DF8060001A8FCF702FD07B07F
:103AE00000BD3849091D088000BF3649098801F02A
:103AF00040010029F9D0704710B540F225513148F6
:103B0000FEF796FC002834D02E49091D0988C8B25A
:103B10002D49097869B92D490978FE2909D12C491F
:103B20000978FF2905D10121274A11700021294A6E
:103B3000117025490978012914D12749254A12789D
:103B4000885424490978491C224A11701146097881
:103B5000082907D100211C4A11701E4A1170012149
:103B60001E4A116019490978194A117017490870DD
:103B700000BF10BD10B502460B46002454405C4007
:103B8000FF20FFF7AEFFFE20FFF7ABFFD0B2FFF73D
:103B9000A8FFD8B2FFF7A5FF0020FFF7A2FF002083
:103BA000FFF79FFF0020FFF79CFF0020FFF799FF22
:103BB0000020FFF796FFE0B2FFF793FF10BD000073
:103BC0000008014000440040CB000020C900002054
:103BD000CA000020C800002060000020EC00002087
:103BE00008B501210420FDF7F1FA0820ADF8000026
:103BF00010208DF8030003208DF80200694602486A
:103C0000FCF7C2FF08BD000000080140F0B505AC9C
:103C1000F0CCC0E90023C0E90245C0E904674FF0D9
:103C2000000CC0F818C0C0F81CC00021016241623D
:103C3000C0F828C0C0F82CC0C0F830C0C0F834C0EC
:103C4000F0BD2DE9F04F8FB0824616461F46DDE9E4
:103C50001845CAE9066722462B46DAE906B15846F6
:103C600001F0B4F980468946DAE90CB35A46204699
:103C7000294601F0ABF9CDE90C0142464B46DAE9A1
:103C800008B1584600F062FECAE90801DAE904B159
:103C90005846DDE90C2301F09BF8CDE90801DAE98B
:103CA0000801CDE90001DAE902B35A4601F090F8C3
:103CB000CDE9040142464B46DAE900B1584601F02D
:103CC00087F8CDE90201DDE9042300F03FFECDE9EC
:103CD0000601DDE9082301F079F9CDE90A01CAE915
:103CE0000A89CAE90C45DDE90A010FB0BDE8F08F89
:103CF00070B504460D46FE480168204601F07CFA86
:103D0000FB4908602946FB48006801F075FAF9494B
:103D10000860F748006801F0BBFBF7490880F548E8
:103D2000006801F0B5FBF449091D088070BD70B54D
:103D3000F248006801F090FB0646F048006880F009
:103D40000045284601F088FB0446204601F0C0FBF0
:103D50000546EB480168284601F0E6FC04D22046FF
:103D600001F0B6FBE6490860304601F0B1FB0546BC
:103D7000E3480168284601F0D7FB04D2304601F041
:103D8000A7FBDF490860204601F0A2FB0546DD489D
:103D90000168284601F0C8FC04D2204601F098FBD7
:103DA000D8490860304601F093FB0546D5480168C4
:103DB000284601F0B9FB04D2304601F089FBD14915
:103DC000086070BD2DE9F04704460D46294620469F
:103DD00001F0DBFCCC49086008460168CB4800686C
:103DE00001F00AFAC9490860C9480168C648006874
:103DF00001F0D6FC8146C7480168484601F0C8FB7F
:103E00008046C54901F066FA0646C0480168C348C5
:103E1000006801F0BDFB8246BF4901F05BFA8046B5
:103E2000B9480168BE48006801F0B2FB8246BA4951
:103E300001F050FA8146414601F0DEF9074631466D
:103E400001F0DAF9B7490860AF480068B049086086
:103E5000B4480068BDE8F0872DE9F04704460D46F8
:103E60002946204601F091FCAF49086008460168E8
:103E7000AE48006801F0C0F9AC490860AC48016880
:103E8000A948006801F08CFC8146A24801684846B8
:103E900001F07EFB8046A04901F01CFA0646A348CB
:103EA00001689E48006801F073FB82469A4901F060
:103EB00011FA80469C4801689948006801F068FB47
:103EC0008246954901F006FA8146414601F094F98F
:103ED0000746314601F090F996490860924800681B
:103EE0009349086093480068BDE8F0872DE9F041E8
:103EF0004FF49664A5102646A710284601F0E8FA6C
:103F000080468D480168404601F00EFC04D22846E8
:103F100001F0DEFA88490860204601F0D9FA8046AF
:103F200085480168404601F0FFFA04D2204601F0BE
:103F3000CFFA81490860384601F0CAFA80467F48C6
:103F40000168404601F0F0FB04D2384601F0C0FAA7
:103F50007A490860304601F0BBFA8046774801682C
:103F6000404601F0E1FA04D2304601F0B1FA73495B
:103F70000860BDE8F0812DE9F04104467048006812
:103F8000082807D16C480168204601F035F96A49D4
:103F9000086022E06A480068062807D16648016880
:103FA000204601F0F2FB6449086016E064480068AE
:103FB000052807D161480168204601F0E6FB5F490A
:103FC00008600AE05E480068072806D15B4801687F
:103FD000204601F011F959490860594800680B283A
:103FE0000ED14648006801F0DBF80546554A564BAD
:103FF00000F0ACFC074600F077FC4049086011E097
:104000004F48006809280DD13C48006801F0C8F805
:1040100005464C4A4C4B00F0D9FF074600F064FCC3
:104020003649086049493548006801F07DFA02D8F0
:1040300046483249086046493048006801F074FB40
:1040400002D843482D490860BDE8F0810146B1F52A
:104050007A7F01DA012000E00020704770B532203D
:10406000FEF76BFD0546012D0ED13A480078401C45
:10407000384908700120384908703648007803280C
:1040800002DD002033490870FEF704FE0446012CCF
:1040900004D13248284908602849086070BD2DE9DC
:1040A000FC5F01218807FDF7EEFF00287AD001218F
:1040B0008807FDF7F9FF2A48407C401C28494874CE
:1040C0000846407C642803DD65204874012008749C
:1040D0002448006824490860FFF7C0FF234800789F
:1040E00001284ED122480078401CC0B2204941E04E
:1040F00020000020240000203C0800402800002070
:10410000180000201C0000200C01002014010020D9
:1041100018010020480000200000C8424400002090
:104120004000002010010020FC00002004010020BD
:104130000801002000010020380000203C00002081
:104140005C0000209A9999999999A93F00004040F4
:104150000000F041F9000020F800002000803B44FE
:1041600034050020F0000020F40000203100002081
:10417000300000200870052803D1002008707D4918
:1041800008707D480068FFF761FF00287CD17B48FC
:10419000006840B17A48006868B900207949087021
:1041A000487008E08DE078497848006801F092F89E
:1041B0000446FFF7E0FE7648007C00283CD17549B4
:1041C00008807349886800F0EBFF06460F46704987
:1041D000086800F0E5FF804642460B466E48CDE990
:1041E0000067FFF72EFD044600F07EFB8246514635
:1041F0006A48006801F000F8684908606449C868C6
:1042000000F0CEFF06460F466149486800F0C8FF3F
:10421000804642460B466248CDE90067FFF711FD34
:10422000044600F061FB834659465E48006800F092
:10423000E3FF5C4908600DE056480088401C80B2EE
:1042400054490880B0F57A7F04DD57485349086027
:1042500054490860FFF74AFE504801685348006817
:10426000FFF7FAFD524908604E480168514800685E
:10427000FFF7A8FD50490860FFF759FD4E48016857
:104280004B480068FFF734FD6420FEF70DFCFEF795
:10429000BEFF4A4909680844484908604848006820
:1042A000401C4749086064280BD1444800686421D9
:1042B00090FBF1F030490860002040490860404917
:1042C00008600020BDE8FC9F0146002901DA484251
:1042D00000E0084670472DE9F041012600253948E5
:1042E0000068012811D1002403E02648005D454004
:1042F000641C072CF9DB2348C079A84201D10026B1
:1043000000E0012600202F49086086BB1D48007888
:10431000A0B11C4909784FF47A7201FB02F001F058
:10432000D7F81E49086028491C48006800F0D2FFF1
:104330000746264900F060FF184908601148407898
:10434000A0B1104949784FF47A7201FB02F001F0F4
:10435000BFF8144908601E491248006800F0BAFF0F
:1043600007461A4900F048FF0E4908600126BDE8DB
:10437000F0810000310000202C000020F00000201F
:10438000F4000020600000200000404028000020D1
:1043900034050020FA0000206005002038000020CD
:1043A000980500203C00002000803B4420000020B5
:1043B00018000020240000201C000020E80000203D
:1043C000E4000020EC0000200000874300007A4356
:1043D000000034432DE9F84F4FF0000A0A25142459
:1043E0004FF01E082826322729467EA20020FEF71D
:1043F000DEFD0C202946022300907C4802784120F3
:10440000FEF78BFD7A48007828B97AA20021084689
:10441000FEF7CDFD1CE076480078012805D177A293
:1044200000210846FEF7C3FD12E07148007802281B
:1044300005D174A200210846FEF7B9FD08E06C48DA
:104440000078032804D171A200210846FEF7AFFDD1
:10445000E1B270A20020FEF7AAFDE1B270A24E20E8
:10446000FEF7A5FDE1B26FA26420FEF7A0FD6E4845
:104470000068642190FBF1F90C20E1B202234A4666
:1044800000904120FEF749FD67480068642190FBD9
:10449000F1F201FB12090C20E1B202234A4600901E
:1044A0005820FEF73AFD60480068642190FBF1F265
:1044B00001FB12000A2807DA0C20E1B202230022D5
:1044C00000905220FEF729FD08F0FF0157A20020BE
:1044D000FEF76DFD08F0FF0156A23C20FEF767FDD8
:1044E000F1B257A20020FEF762FD5649086800F0BD
:1044F000CFFF81460C20F1B206234A4600900F20E0
:10450000FEF70BFDF1B24EA23C20FEF750FD4D49E7
:10451000886800F0BDFF81460C20F1B206234A46B0
:1045200000904B20FEF7F9FCF9B245A20020FEF7FF
:104530003EFD4449486800F0ABFF81460C20F9B2CB
:1045400006234A4600900F20FEF7E7FCF9B23CA292
:104550003C20FEF72CFD3B49C86800F099FF8146DE
:104560000C20F9B206234A4600904B20FEF7D5FCFA
:10457000FEF7F3FBBDE8F88F2DE9B8412A48006843
:10458000A0F256404000032190FBF1F4002C00DA29
:104590000024642C00DD64242B48007808B9012035
:1045A00000E00020284908700846007840B9002043
:1045B000E3B2F2B2E9B2009024A000F05BF80EE0A2
:1045C0002648006800F048FF07462548006800F0CC
:1045D00043FF80463A46414622A000F04BF8BDE832
:1045E000B88100004E756D3A20000000A000002048
:1045F000F9000020426C7565202000004772656557
:104600006E20000059656C6C6F7700005265642065
:1046100020200000566F6C746167653A000000004E
:104620002E000000560000002C000020546172672C
:1046300065740000506F736974696F6E000000004C
:104640002B00000034050020240100207B4125645C
:104650003A25643A25643A25647D2400240000202C
:10466000200000207B4225643A25647D2400000060
:10467000704700000FB4044910B503AA029800F077
:10468000D3F810BC5DF814FB800000202DE9F04148
:104690000E460446002020622046E168884730B379
:1046A000252805D0D4E901219047206A401CF2E773
:1046B000E168204600278847050018D0A5F1410091
:1046C000192802D820354FF4006732462946204683
:1046D0002760FBF745FD40B1012804D0F61D26F008
:1046E00007060836D8E7361DD6E72846DAE7206AF7
:1046F000BDE8F0812DE9F0410646002410687529D7
:10470000314616A510D0AFF30080002802DA4042EF
:1047100013A507E031688A0701D512A502E0490711
:1047200004D511A5012401E0AFF3008000210A2285
:1047300006F1240709E0B0FBF2FCB0FBF2F302FB48
:104740001C00303078541846491C0028F3D1234609
:104750002A463046BDE8F04100F00CB800000000E9
:104760002D0000002B000000200000007047704763
:10477000704770472DE9F0470D469946924604462A
:1047800000F124080168880604D5E06921F01001D1
:10479000216000E00120A84201DD471B00E0002766
:1047A000A1697A1902EB0900081AA0612078C006F5
:1047B00002D42046AFF30080002608E0D4E90121AE
:1047C0001AF806009047206A401C761C20624E456D
:1047D000F4DB2078C0060AD52046AFF3008006E05F
:1047E000D4E9012130209047206A401C2062381E05
:1047F000A7F10107F4DC07E0D4E9012118F805006E
:104800009047206A401C2062281EA5F10105F3DCB8
:104810002046AFF300802078000602D50220BDE8D4
:10482000F0870120FBE70000074B70B50D467B4485
:1048300000F011F80446284600F020F810B14FF0BF
:10484000FF3070BD204670BD1BE0FFFF01694A1CB0
:1048500002610878704700B58FB0CDE901310021C1
:10486000059105497944CDE9031011466846FFF7E3
:104870000DFF0FB000BD0000E5FFFFFF007B00F063
:1048800080007047754600F02BF8AE46050069467B
:10489000534620F00700854618B020B5FBF70AFE06
:1048A000BDE820404FF000064FF000074FF0000831
:1048B0004FF0000B21F00701AC46ACE8C009ACE8B2
:1048C000C009ACE8C009ACE8C0098D46704710B516
:1048D0000446AFF300802046BDE81040FBF752BC11
:1048E00000487047D005002021F00042A2F160523C
:1048F000B2F5801F01F0004328BFD2F17F6C0BD9C5
:104900005FEA001C43EAC20242EB507018BF7047D6
:1049100028BF20F001007047B2F5801FBCBF1846C9
:1049200070474FEA410C1CF5001F02D2084600F008
:10493000F6BE70B500F0F6FA00000089FFF7F6BF8A
:104940004FF00040A0F580007047000010B591EADC
:10495000030F48BF83F0004300F14083841A71EBDA
:10496000030C05D2121943EB0C03001B61EB0C0185
:10497000DFF824E14FEA1154A4EB135C1EEA430F65
:1049800018BF9EEA445F73D023EA0E03DCF1200EC9
:1049900021EA045143F4801332D322FA0CFE10EBC7
:1049A0000E0023FA0CFE41EB0E01CCF1200E03FAAF
:1049B0000EFE10EB0E0051F10001B1F5801FCCF19D
:1049C000200E32D201EB045112FA0EF2BDE8104073
:1049D00058BF7047401C38BF5FEA420218BF70479B
:1049E000002814BF20F0010041F100014FEA41030B
:1049F00013F5001F38BF7047A1F1C04100F0E0BAC5
:104A0000012A43EB0302ACF1200CDCF11F0E32BF94
:104A10004FF0000E23FA0CF310EB030041EB0451AE
:104A2000B4EB115FD0D0A1EB045101F5801149081E
:104A30005FEA300001EB04510ED350F1000038BFA3
:104A400012FA0EFE08D1BDE81040C9E7401C38BF7D
:104A50005FEA4202CAD1C3E7BDE810404FEA410312
:104A600013F5001F38BF7047A1F1C04100F0A8BA8C
:104A70009EEA445F08D011EA5E0FBDE8104004BF13
:104A800001F0004100207047BDE8104070B500F013
:104A900049FA00BF64FBBE3E0000E0FF2DE9C041C3
:104AA00030B4DFF8A0C23CEA111418BF3CEA13147A
:104AB00000F0EC8081EA03051CEA111444EAD57485
:104AC00018BF1CEA131500F0C780A4EB05044FF0D3
:104AD000004545EAC12145EAC32341EA505143EA72
:104AE000525304F17F74994204F500344FEAC02018
:104AF0004FEAC22208BF904200F09C804FEA136543
:104B00000FF24016765D4FEA134506FB05F7C7F135
:104B1000807706FB07F74FEAD737A7FB0368764293
:104B2000C8F58038A7FB06CE38BFA8F1010807FBFF
:104B300008E64FF0000EA6FB028CE6FB03CEDCF18C
:104B4000000CCEF1004E38BFAEF1010EA6FB0C58A2
:104B50004FF000074FF00005E6FB0E87A1FB08C6EB
:104B6000A0FB07CE16EB0E0645F10005E1FB07653D
:104B700015F1E04E7EBFA4F580345FEA46066D4134
:104B800016F1800745F100054FEA17274FEA066640
:104B900047EA0567A6F1DE46B6F1805F4FEA1525C4
:104BA0001FD9384624F0010C05EBC471BCF1FE6F2F
:104BB00001EB0C1102D8F0BCBDE8008124425CBFBF
:104BC00001F5801E9EEAC47F02D4F0BCBDE80081DE
:104BD000244238D4F0BCA1F1C041BDE8004100F04E
:104BE000EFB94FEAD22242EA43524FEAD323A7FB5E
:104BF00002864FEAD02040EA415007FB03661EEAD6
:104C00000E0F4FEAD12105FB026658BFA6EB0056F6
:104C1000B6EB00564FEA520E4EEAC37E18EB0E0E6C
:104C200056EB530EBDD518EB02085E417F1C55F1C3
:104C30000005B6E74FF480154FF000074FF000066F
:104C40004FF00008ADE7F0BC4FF0000001F1C041AB
:104C500001F00041BDE8008111EA0C1F0CEA1315B8
:104C600000D00CE013EA0C1F00F025804FF000008C
:104C7000F0BC81EA030101F00041BDE80081F0BC15
:104C8000BDE8004181EA030100F09AB9F0BCBDE83B
:104C9000004170B500F046F9097EFC3E00F007B80F
:104CA00081EA03014FF0000001F00041704781EA02
:104CB000030100F085B9F0BCBDE800414FF00000F1
:104CC00021497047FFFDFBF9F7F5F4F2F0EEEDEB4B
:104CD000E9E8E6E4E3E1E0DEDDDBDAD8D7D5D4D3FA
:104CE000D1D0CFCDCCCBCAC8C7C6C5C4C2C1C0BF46
:104CF000BEBDBCBBBAB9B8B7B6B5B4B3B2B1B0AF4C
:104D0000AEADACABAAA9A8A8A7A6A5A4A3A3A2A12F
:104D1000A09F9F9E9D9C9C9B9A99999897979695EA
:104D200095949393929191908F8F8E8E8D8C8C8B86
:104D30008B8A89898888878786858584848383820E
:104D4000828181800000FF070000F87F4FEA410365
:104D50004FEA5353A3F58063D3F11E03C8BFD3F1C9
:104D6000210C0CDD4FF0004242EAC12242EA5052CF
:104D700032FA03FC8CEAE17CACEBE1707047102B5B
:104D8000C4BF0020704703F5787CBCF1FF3F04D01E
:104D90006FF0004282EA2100704770B500F0C2F85F
:104DA0004992248000207047F2E7B0FA80F310FAAD
:104DB00003F10AD0C3F11D0303F580634FEA4150AC
:104DC0004FEA035202EBD12170474FF000007047C9
:104DD000DFF848C170B51CEA111E1EBF1CEA13158E
:104DE0009EEA0C0F95EA0C0F00F06F8081EA030435
:104DF00023EA4C134EEAD47E21EA4C1141F480118F
:104E000043F48013AE44A1FB024CA0FB0365AEF15A
:104E10007F7E361955EB0C05A1FB034C4CF10003CA
:104E2000A0FB021C16EB0C06654153F1000309427E
:104E300018BF46F0010613F4007F0BD14FEA03318F
:104E40004FEA0530340341EA155140EA16506FF03D
:104E500003020AE04FEAC3214FEAC520F40241EA07
:104E6000555140EA56506FF0020202EB2E4201EB20
:104E7000025585EACE710AD05FEA440C18BF24F0CF
:104E8000004450F1000041F1000120EAD47040F2EA
:104E9000FE7C624500D270BDA84214BF4FF0804432
:104EA0004FF04044002E08BF0024BEF1806FA8BF21
:104EB000A1F1C041BDE8704080F282804FF0000057
:104EC00001F1C04101F0004170479EEA0C0F0CEA6D
:104ED000131518BF95EA0C0F06D04FF0000081EAB9
:104EE000030E0EF0004170BD00F01CF88900013E79
:104EF00000F007B800F009B84FEA430C5FEA5C5CC9
:104F000008D081EA030100F05BB84FEA410C5FEA88
:104F10005C5CF6D14FF00000014970470000FF07CC
:104F20000000F87F0EF1020E2EF0030E5EF8046B07
:104F3000364205D4012A43EB030515F5001F12D8AC
:104F4000012841EB010C1CF5001F0CD80ED14FEAD3
:104F5000D17C15F5001F0CEB4C0C0CF1020C08BFBA
:104F60004CEBD37C04E04FF0080C01E04FEAD37C1B
:104F70000CEB4C0526FA05F606F00706B6F1040C14
:104F800006D20EEB860CBDE870404CF0010C604779
:104F9000DFE80CF0090B02024FF000414FF0000077
:104FA000A1F5002170BD19461046012851EB0104FE
:104FB00018BFD4F5001484BF002001F0004170BD7B
:104FC0000808A0F500114FEA3101704710B591EAC9
:104FD000030F48BF83F000433FF5C0AC841A71EB68
:104FE000030C07D212198CF0004C43EB0C03001B8E
:104FF00061EB0C01DFF8A4E14FEA1154A4EB135C60
:105000001EEA430F18BF9EEA445F00F0B08023EA17
:105010006E03524221EA0451C3EB6E0338BF5B1E9C
:10502000DCF1200E25D322FA0CFE10EB0E0043FA21
:105030000CFE41EB0E01CCF1200E03FA0EFE10EB3C
:105040000E0051F10001CCF1200E29D412FA0EF21B
:1050500001EB0451BDE8104058BF7047401C1CBF15
:10506000B2F1004F704700280CBF491C20F001002E
:10507000704712EB020E43EB030218BF4FF0010E14
:105080004EEA4202ACF1200CDCF11E0E54D943FA78
:105090000CFE10EB0E0051F1FF31CCF11E0ED5D5F8
:1050A0000EF1010E12FA0EFE404141EB010101EB3F
:1050B000445C5FEA5C5C10D910EBDE7001EB0451DC
:1050C00038BFBEF1004FBDE8104018BF7047002840
:1050D0000CBF491C20F00100704730D24FEAD42C9D
:1050E00011F5001124F400641BD0B1FA81F20B3ADF
:1050F000A41AA41ED2F12003914030FA03F31943FD
:10510000904001EBCC71002C01EB0451BDE8104044
:10511000A8BF704701F1C0414FF0000001F000410D
:105120007047B0FA80F310FA03F100D110BDE41A11
:10513000173C4805C90AE4E701EB045110BD4910CA
:1051400001EB0451BDE810404FEA300002E04FF09F
:10515000000170474A0008BF0042F8D0B2F5001FB6
:1051600028BF704701F000414FF0000070479EEAF1
:10517000445F07D011EA5E0FBDE8104004BF002174
:1051800000207047BDE8104070B5FFF7CBFE00BFB0
:1051900040DFF63E83F00041104670470000E0FF1C
:1051A00043004FEAD30C4FEA3C0C43401FBF40077B
:1051B0000CF1605113F0FE4F70471CF0006F03D1EB
:1051C00000200CF0004170470CF0004343EA50709F
:1051D00010B540EACC0000F05CFA00BF000000927D
:1051E0004FEA0001FFF7ECBE4FF000414FF0000026
:1051F000A1F500217047000090EA010F48BF81F03F
:10520000004100F1D482421A3CBF801A89184FEA4B
:10521000D0524FF07F4C1CEA410FA2EBD15318BF84
:105220009CEA026F00F03B804FF0004C4CEA0020FB
:105230004CEA012121FA03FC10EB0C0C1ED202F106
:10524000FF325FEA1C2040EBC25038BF70471CF0B1
:105250007F0F4FEA400C18BFBCF17F4F38BF70473B
:10526000C3F12003994008BF20F00100BCF17F4F3B
:1052700038BF7047A0F1C04000F051BA4FEA3C007F
:10528000000A40EBC25028BF1CF0FF0F4FEA400C51
:10529000E6D018BFBCF17F4F38BF7047EAE79CEA01
:1052A000026F05D010EA5C0F08BF00F000407047A5
:1052B00010B500F0EEF900BF64FBBE3E401058BFD1
:1052C000C0F14040491058BFC1F140418142EFF365
:1052D000008070474FF47F0C1CEAD0121EBF1CEAFE
:1052E000D11392EA0C0F93EA0C0F00F0858090EA3C
:1052F000010F48BF42F4807240F4000C41F40000FA
:105300002CF07F4120F07F4000B58142A2EB0302E8
:105310000FF2081CACEB504EC0F100009EF800E00C
:105320004FEA4E0E00FB0EFC38BF49004FEA2C1C22
:1053300002F5FA020CFB0EF34FEACE1E4FEA112CD7
:105340004FEAC1210EEB635E42EB22420EFB0CFCE6
:105350004FEA1C5300FB03114FEA112C4FEA0131B5
:105360000EFB0CFC4FEADC4C00FB0C11C14228BFC9
:1053700009184CEB03335DF804EB10EB410143EBF0
:10538000C250B2F57C0F38BF704729D512F0F00F2C
:105390001CBF00F1C04000F00040704700818283D4
:1053A0008485868788898B8C8D8E8F919293959634
:1053B00097999A9C9D9FA0A2A3A5A7A8AAACAEB0BE
:1053C000B2B3B5B7B9BCBEC0C2C5C7C9CCCED1D4C3
:1053D000D7D9DCDFE2E6E9ECF0F3F7FAFE000000F3
:1053E0004FEA400C0CF1807CBCF17E4F28BF704727
:1053F000B0F1C04000F093B990EA010F0CEAD1136C
:1054000048BF42F48072624538BF634507D213F447
:105410007F0F16D080EA010000F00040704710B501
:1054200000F037F9097EFC3E00F005B880EA010083
:1054300000F00040704780EA010000F0004000F0FA
:105440006EB912F47F0F04BF0248704780EA010072
:1054500000F065B90000C07F41000B0ED3F19E0241
:1054600008D950F400034FEA032323FA02F048BF9F
:105470004042704710B500F00CF900BF49922480FB
:10548000002070476FF0004282EA20007047000061
:10549000C10DD1F19E0206DB4FEA002343F0004329
:1054A00023FA02F07047004207D54FEA4001B1F1FC
:1054B000FE4F02D24FF00000704710B500F0E9F83F
:1054C00049922480002070476FEA20007047000056
:1054D00010F0004148BF4042B0FA80F310FA03F2E6
:1054E000C3F19D030BD051EAC35101EB12205306C7
:1054F00038BF704700F1010008BF20F0010070477D
:10550000B0FA80F310FA03F2C3F19D030AD0D90573
:1055100001EB1220530638BF704700F1010008BFAD
:1055200020F001007047000050EA010C00F11380E8
:105530001CF5000F58BFBCF5000F01D4884270471E
:1055400007D710F5000F58BF11F5000F15D488428A
:105550007047894270471CF5000F04D5BCF5000F59
:10556000F7D5814270474FF0807C1CEB400F38BF6D
:105570001CEB410F01D28142704710B500F089F851
:10558000922449004FF000504FF08051FFF796BE33
:105590004FF47F0C1CEAD0121EBF1CEAD11392EA12
:1055A0000C0F93EA0C0F00F0478090EA010F48BF00
:1055B00042F480724FF0004C4CEA00204CEA01218A
:1055C00002EB0302A0FB0113A2F50002002918BFA1
:1055D00043F001035B0028BF4FEA330342EB224252
:1055E0005FEA132C4CEBC2502EBFBCEB436FB2F5FD
:1055F0007C0F70474FEA036CBCF1004F08BF20F0EE
:105600000100B2F57C0F38BF70470BD582F0FF0266
:1056100012F5803FC8BF704700F1C040D8BF00F00E
:105620000040704700F5000C5FEA4C0C48BF704723
:10563000B0F1C04000F073B890EA010F0CEAD1134A
:1056400048BF42F48072624538BF634504D280EAA5
:10565000010000F00040704710B500F01AF800BFDC
:105660008900013E00F007B800F009B85FEA410C7C
:105670005FEA1C6C08D080EA010000F050B85FEAD5
:10568000400C5FEA1C6CF6D14FF00040A0F58000A2
:1056900070470EF1020E2EF0030E5EF8044B24420A
:1056A00004D44FEA4102B2F17F4F11D84FEA4003D0
:1056B000B3F17F4F0CD80ED14FEAD07CB2F17F4FBF
:1056C0000CEB4C0C0CF1020C08BF4CEBD17C04E051
:1056D0004FF0080C01E04FEAD17C0CEB4C0324FAAC
:1056E00003F404F00704B4F1040C06D20EEB840CAE
:1056F000BDE810404CF0010C6047DFE80CF00708F3
:1057000002024FF00040A0F5800010BD08464200A4
:1057100018BFD2F1807288BF00F0004010BDFF2199
:1057200041EAD050C005704751EA000C00F11380E7
:105730001CF5000F58BFBCF5000F01D48142704723
:1057400007D711F5000F58BF10F5000F15D481428F
:105750007047894270471CF5000F04D5BCF5000F57
:10576000F7D5884270474FF0807C1CEB410F38BF63
:105770001CEB400F01D28842704780EA010081EAA9
:10578000000180EA0100FFF7F8BE80F0004090EAD7
:10579000010F7FF538AD81F0004100F008B800003E
:1057A00090EA010F48BF81F000413FF52CAD421A4D
:1057B00004D882F00042A0EB020011444FEAD0521C
:1057C0004FF07F4C1CEA410FA2EBD15318BF9CEA6B
:1057D000026F4AD04FF0004C4CEA00204CEA012105
:1057E00021FA03FCB0EB0C0C0FD412F0FE0F36D0F4
:1057F0005FEA4C001DD5001240EBC25038BF704725
:105800001CF03F0F18BF70470BE0A2F101025FEAE6
:105810001C2040EBC25038BF70471CF07F0F18BFF0
:105820007047C3F12003994014BF401E20F00100CF
:10583000704780084FEA122308BF7047B0FA80FC17
:10584000A2EB0C02CCF1280C60FA0CF093EA122FB8
:1058500004BF00EBC25070474FEAC3707047130A91
:105860005FEADC1008BF7047F6E79CEA026F04D0DD
:1058700010EA5C0F08BF0020704710B5FFF709FF62
:1058800040DFF63E81F0004070470000000000005D
:10589000000000000000000000003F400000000089
:1058A000000000003000400030004000000009000F
:1058B0000BC03D000BC03D00090018C024407FE034
:1058C000224031800000180024C01B000D803240AF
:1058D000018003801C4027401C80074000401000CE
:1058E0006000000000000000000000000000000058
:1058F0001F80204040200000402020401F800000EA
:105900000000090006001F800600090000000400D6
:1059100004003F800400040000000010006000004C
:105920000000000000000400040004000400040063
:105930000000000000400000000000000000002007
:1059400001C006003800400000001F8020402040B9
:1059500020401F800000000010403FC000400000B9
:10596000000018C021402240244018400000108050
:105970002040244024401B80000002000D00110044
:105980003FC0014000003C8024402440244023804C
:1059900000001F8024402440344003800000300079
:1059A000200027C03800200000001B802440244035
:1059B00024401B8000001C0022C0224022401F8087
:1059C000000000000000084000000000000000008F
:1059D00000000460000000000000000004000A0055
:1059E0001100208040400900090009000900090059
:1059F000000000004040208011000A000400180050
:105A0000200023402400180000001F802040274071
:105A100029401F400000004007C039000F0001C0AE
:105A2000004020403FC0244024401B8000001F80D5
:105A30002040204020403080000020403FC02040D7
:105A400020401F80000020403FC024402E4030C036
:105A5000000020403FC024402E00300000000F0016
:105A60001080204022403380020020403FC00400CC
:105A700004003FC02040204020403FC02040204044
:105A800000000060202020203FC020002000204097
:105A90003FC024400B0030C0204020403FC0204089
:105AA0000040004000C03FC03C0003C03C003FC07D
:105AB000000020403FC00C4023003FC020001F805A
:105AC0002040204020401F80000020403FC0244054
:105AD0002400180000001F802140214020E01FA06A
