:020000040800F2
:10000000380B00209D010008A1010008A301000891
:10001000A5010008A7010008A901000800000000D0
:10002000000000000000000000000000AB0100081C
:10003000AD01000800000000AF010008B101000898
:10004000B3010008B3010008B3010008B3010008C0
:10005000B3010008B3010008B3010008DD0E000879
:10006000B3010008B3010008B3010008B3010008A0
:10007000B3010008B3010008B3010008B301000890
:10008000B3010008B3010008B3010008B301000880
:10009000D3140008B3010008B3010008B30100083D
:1000A000B3010008AF0F0008B3010008B301000856
:1000B000750E0008B3010008270F0008B3010008FF
:1000C000B3010008B3010008B3010008B301000840
:1000D000B3010008B3010008B3010008511700087C
:1000E0008D0E0008B3010008B301000800F002F80B
:1000F00000F03FF80AA090E8000C82448344AAF183
:100100000107DA4501D100F034F8AFF2090EBAE880
:100110000F0013F0010F18BFFB1A43F0010318473B
:100120001829000038290000103A24BF78C878C187
:10013000FAD8520724BF30C830C144BF04680C60ED
:10014000704700000023002400250026103A28BF35
:1001500078C1FBD8520728BF30C148BF0B60704739
:10016000642901F09983002070471FB51FBD10B5A9
:1001700010BD01F059FC1146FFF7F7FF00F02AF817
:1001800001F077FC03B4FFF7F2FF03BC00F062FA62
:1001900030BF72B662B680F30888704708480047DF
:1001A000FEE7FEE7FEE7FEE7FEE7FEE7FEE7FEE727
:1001B000FEE7FEE703480449044A054B7047000088
:1001C000ED00000838050020380B0020380700201B
:1001D0003807002008B5092000F0E3F9482000F0B6
:1001E00083F84FF4E131482000F04EFA4FF4E1314A
:1001F000242001F03AFA41F61F4140F2F31000F0DA
:10020000ADFE00F052FC00200623032202210090E4
:10021000012000F015FF00F09BFA01202C49086036
:1002200055E0FF2001F016FAFE2001F013FA5A20E3
:1002300001F010FA322001F00DFA002001F00AFA64
:10024000002001F007FA002001F004FA002001F07C
:1002500001FA002001F0FEF9682001F0FBF91DA071
:1002600001F0DAFA1D4801781DA001F0D5FA1B480B
:1002700041781BA001F0D0FA1848017818A001F0CD
:10028000CBFA1648417816A001F0C6FA13488178D7
:1002900013A001F0C1FA1148C17811A001F0BCFA15
:1002A0000E4801790EA001F0B7FA0C4841790CA074
:1002B00001F0B2FA0948817909A001F0ADFA0748C6
:1002C000C17907A001F0A8FA02A001F0A5FAA8E7F9
:1002D00090012142464646460D0A00004E0000208D
:1002E00025640D0A000000004FF0E021096921F0AB
:1002F00004014FF0E0221161C21700EB5272C2F309
:10030000C702234B1A701946097801EB4102C2EB70
:10031000C1114FF6FF7202EAC1011E4A11807047F7
:1003200001461B4A12784A434FF0E0235A610022EB
:100330009A6101221A6100BF4FF0E022106900F0BB
:1003400001021AB100F48032002AF5D000224FF0E9
:10035000E0231A619A61704701460E4A12884A43A7
:100360004FF0E0235A6100229A6101221A6100BF16
:100370004FF0E022106900F001021AB100F480325F
:10038000002AF5D000224FF0E0231A619A617047ED
:10039000A2000020A4000020A34A0A400243A34B6D
:1003A0001A6070470146072323EA010212029F4B9D
:1003B0001B1D18684FF6FF0318409D4B1843104350
:1003C0009A4B1B1D186070472DE9F041074688467F
:1003D00014461D462846FFF7E5FFC5F1040007FA5D
:1003E00000F60F20284100EA0800064306F00F0639
:1003F000E21704EBD2625211920002F1E022D2F82D
:1004000000212146E31704EBD3635B11A4EB431CEB
:10041000012303FA0CF31A432046E31704EBD363DA
:100420005B119B0003F1E023C3F800218148005DCC
:1004300040EA06107F490855BDE8F08170B50446D2
:100440000B46CE1701EB9676C6F38700CE1701EB6D
:100450009676B610A1EB8606B606350E764B9B69EE
:1004600043F00103744EB3614FEAB63353F82030C2
:100470000F26AE40B343714E46F82030334653F852
:10048000203004FA05F61E436C4B43F820606C4B99
:100490001B6801268E403343694E336002F001032E
:1004A00043B1674B0C331B6801268E403343644EC7
:1004B0000C36336002F0020343B1614B08331E680F
:1004C00001238B401E435E4B08331E6070BD00B598
:1004D000002059490861C8601420486100208861E3
:1004E000C8610846006840F001000860084640689E
:1004F000544908405049486008460068524908403D
:100500004D4908600846006820F4802008600846CD
:10051000406820F4FE0048600020886000214FF011
:100520000060FFF739FF00BD10B540480830006893
:1005300040F004003D49083108603F48C06940F080
:1005400080503D49C8614148406840F480703F494F
:1005500048600846006840F00400086008460068EB
:1005600040F002000860FFF713FE10BD3048001D88
:100570002E49091D08607047014649062E4A9269B6
:1005800042F001022C4B9A612C4A083A526822F040
:10059000E0622A4B083B5A601A4652680A435A6086
:1005A000704730B504460025FFF791FF22480068E8
:1005B00040F480302049086000BF1F480068400CAC
:1005C0000028FAD04FF480601B494860A01EC4B2D6
:1005D0000846406840EA844048600846406840F465
:1005E000803048601A48006840F0320018490860BE
:1005F0001148006840F080700F49086000BF0E4845
:100600000068400E0028FAD00B48406840F0020015
:100610000949486005E008484068C0F3870505F0CF
:100620000305022DF7D130BD80FFFF1F08ED00E06C
:100630000000FA0500E400E000100240080001405C
:10064000000401400000FFF8FFFFF6FE00700040CC
:1006500000200240014600BF704700BF384A1288A0
:1006600002F04002002AF9D0C2B2354B1B1D1A809D
:1006700070473349091D088000BF3149098801F0DE
:1006800040010029F9D070472DE9F05F05460E467C
:10069000300101F03FFB81462A4905FB01F001F0E2
:1006A00039FB8246494601F053FA0746384601F0C5
:1006B00011FB84B2204601F02DFB8346394601F040
:1006C00009FC82464FF0834101F038FB814601F07E
:1006D00001FB80464FF6FF7000EA041404EB0800AB
:1006E00084B21948806940F00400174988610846BF
:1006F000806940F4804088611448006820F47F607D
:10070000124908600846006840F40B6008600E4813
:10071000C06840F480400C49C8600846C06820F4B6
:100720008040C860064808300480001D008842F2FE
:100730000C01084302490C310880BDE8F09F00001D
:100740000038014040420F00001002400408014000
:100750001748806940F00400154988611548006811
:1007600020F47020134908600846006840F44030C7
:10077000086010480C30006840F010000D490C3142
:100780000860704718B900210B4A11600FE00B494F
:100790000968491C094A1160814208D10649096863
:1007A000C943074AC2F890110021044A11607047FA
:1007B000001002400008014090012142AC000020DE
:1007C0000000214210B50A461AB10123FE4C2360F5
:1007D00002E00023FC4C2360002114E00023FB4CCA
:1007E000236000F080031BB10123241F236003E07A
:1007F0000023F64C241F23600123F44C236043069E
:10080000180E4B1CD9B20829E8DB0123EE4C2360FB
:1008100010BD30B500241CE004F1B001C8B20021C5
:10082000FFF7D0FF00210846FFF7CCFF0021102082
:10083000FFF7C8FF002508E0E54901EBC501085DA9
:100840000121FFF7BFFF681CC5B2802DF4DB601CDF
:10085000C4B2082CE0DB30BD00B500218D20FFF7CD
:10086000B1FF00211420FFF7ADFF0021AF20FFF7FB
:10087000A9FF00BD00B500218D20FFF7A3FF0021D7
:100880001020FFF79FFF0021AE20FFF79BFF00BD68
:1008900030B500240CE0002506E00020CC4901EB37
:1008A000C5010855681CC5B2802DF6DB601CC4B2BA
:1008B000082CF0DBFFF7ADFF30BDF0B51446002685
:1008C0007F2801DC3F2900DDF0BD0B46CF1701EB8F
:1008D0005777FF10C7F10707FAB2CF1701EB577729
:1008E000FF10A1EBC707FDB2C5F107070123BB400D
:1008F000DEB24CB1B64B03EBC0039B5C3343B44F49
:1009000007EBC007BB5408E0B14B03EBC0039B5C93
:10091000B343AF4F07EBC007BB5400BFD4E72DE98B
:10092000F04F80460C4615461E46A346A5F1200012
:10093000C5B200273EE00C2E07D105EB4500A549C6
:1009400001EB800010F8079004E0A34800EB0510CD
:1009500010F807904FF0000A26E009F0800028B157
:1009600021464046099AFFF7A8FF09E0099808B90F
:10097000012000E00020024621464046FFF79DFF8F
:100980004FEA49604FEA1069601CC4B2A4EB0B0047
:10099000B04205D15C4608F1010000F0FF0806E016
:1009A0000AF1010000F0FF0ABAF1080FD5DB00BF21
:1009B000781CC7B2B742BEDBBDE8F08F10B5024667
:1009C000012000E050430B1EA1F10104E1B2F9D176
:1009D00010BD2DE9FF4F81B0074691461E460E9D82
:1009E0004FF0000A002439E0301B401EC1B20A203B
:1009F000FFF7E4FFB9FBF0F00A21B0FBF1F201FBD5
:100A00001208BAF1000F16D1701EA04213DDB8F122
:100A1000000F0ED10120AB4605EBDB71491001FB45
:100A200004710090C8B22B4620220299FFF777FF8D
:100A300012E04FF0010A0120AB4605EBDB714910D3
:100A400001FB04710090C8B208F13001CAB22B4614
:100A50000299FFF764FF00BF601CC4B2B442C3DB5D
:100A600005B0BDE8F08F78B505460E46144618E08F
:100A70007A2D03DD002506F11000C6B23A2E04DD02
:100A8000002005460646FFF703FF0120009022786C
:100A90000C2331462846FFF742FF05F10800C5B296
:100AA000641C20780028E3D178BD10B54B488069DC
:100AB00040F00800494988614948006820F47020E6
:100AC000474908600846006840F400300860434821
:100AD000806940F01000414988610846806940F013
:100AE000010088613F484068C0F313003D494860F9
:100AF000084640683C4908433A4948603B4800681A
:100B000040F48070394908603448006A20F00100E0
:100B1000324908623648008820F0010034490880D4
:100B20003248006820F4807030490860002027496E
:100B3000083908606420FFF70FFC01202D49C1F837
:100B40008C010021AE20FFF73DFE0021D520FFF7EC
:100B500039FE00215020FFF735FE0021A820FFF7C5
:100B600031FE00213F20FFF72DFE0021D320FFF7AB
:100B700029FE00210846FFF725FE00214020FFF74F
:100B800021FE00218D20FFF71DFE00211420FFF71C
:100B900019FE00212020FFF715FE00210220FFF79B
:100BA00011FE0021A120FFF70DFE0021C020FFF75C
:100BB00009FE0021DA20FFF705FE00211220FFF7D1
:100BC00001FE0021812017E0BC01214294812142D5
:100BD000D8000020D21F0008462400080010024060
:100BE000000C014000100140000020220070004075
:100BF000306C004000802142FFF7E4FD0021EF202F
:100C0000FFF7E0FD0021D920FFF7DCFD0021F120F6
:100C1000FFF7D8FD0021DB20FFF7D4FD00213020B5
:100C2000FFF7D0FD0021A420FFF7CCFD0021A62076
:100C3000FFF7C8FD0021AF20FFF7C4FDFFF728FE36
:100C400010BD000010B5BE48C06940F00100BC49AD
:100C5000C8610846806940F004008861B9480068AE
:100C600020F0FF00B74908600846006840F04400E3
:100C70000860C804808940F00100C90488810846E2
:100C8000808940F04000888101231C2203211846FE
:100C9000FFF79AFB00204FF0804108854FF6FF7068
:100CA00088850846008820F440700880084600883F
:100CB00020F0600008800846008B40F001000883A7
:100CC0000846008B40F4807008830846008C20F0B2
:100CD000020008840846008C20F0200008840846A2
:100CE000008940F0030008810846008840F00100B8
:100CF000088010BD10B59248806940F00800904906
:100D000088619148006820F0F0008F49086008462B
:100D1000006840F080000860081D006820F0704006
:100D2000091D08600846006840F000400860032282
:100D300001210846FFF782FB03220F210120FFF764
:100D40007DFB0223072200210846FFF73DFB02231B
:100D5000282200210846FFF737FB10BD10B5784860
:100D6000C06940F004007649C8610846806940F0D7
:100D7000080088617448006820F07F40724908606C
:100D80000846006840F0884008607048008840F0DD
:100D900001006E4908800846008840F04000088045
:100DA00001231E2203211846FFF70EFB002067498E
:100DB0001C3108804FF6FF70091D088063480C380D
:100DC000008820F4407061490C390880084600888A
:100DD00020F0600008805D480C30008840F0010081
:100DE0005A490C3108800846008840F48070088019
:100DF00056481430008820F002005449143108800D
:100E00000846008820F0200008805048001F008815
:100E100040F003004D49091F08804C480C380088F9
:100E200040F0010049490C39088010BD01460229F3
:100E300004D003290BD0042918D10EE04FF08042D2
:100E4000928C10B200224FF080439A8410E0404A06
:100E5000106800223E4B1A600AE03C4A18321288A1
:100E600010B20022394B18331A8001E0002000BF75
:100E700000BF70474FF08040008A4FF08040008AEA
:100E800020F001004FF08041088270474FF400408D
:100E9000304908603048006801280FD12E483838A2
:100EA000006828B92A480068401C2949086014E0F5
:100EB00027480068401E264908600EE0264838385A
:100EC000006828B922480068401E2149086004E0F3
:100ED0001F480068401C1E490860704702201D49D9
:100EE00008601D483838006870B91B48006828B988
:100EF00017480068401C1649086013E01448006851
:100F0000401E134908600DE01348006828B91048D6
:100F10000068401E0E49086004E00D480068401C4F
:100F20000B49086070470948001D00880748001DEC
:100F3000008820F001000549091D08807047000065
:100F40000010024000080140000C01400C08004065
:100F500014000020140401403C81214270B5054674
:100F60000C463048806940F400602E4988612E4864
:100F70000580001F04802C482038008840F00100C4
:100F80002949203908800846008840F04000088040
:100F900025482C38008840F0010023492C3908806E
:100FA0000223192203210120FFF70EFA70BD1E480B
:100FB0001C38008800F0010070B31B481C38008802
:100FC00020F0010018491C39088018480068401CAE
:100FD00016490860012819DD0020086014480068DF
:100FE000401C134908600846006812490860104810
:100FF00000681E280ADD00200D4908600E480068C0
:1010000008B9012000E000200B4908600A48006888
:1010100018B100200949086002E00720074908606C
:1010200000207047001002402C2C01408800002056
:101030007C000020800000208C0000208400002024
:101040002DE9F04704460D4617461E46DDF8209070
:101050004FF0000814B10DB107B116B90120BDE879
:10106000F087601EC4B2681EC5B2781EC7B2701E7B
:1010700086B2FE48806940F00400FC498861FC4863
:10108000006820F47F20FA4908600846006840F4B0
:1010900038200860F6480830006840F4C050F44931
:1010A00008310860F148C06940F00070EF49C8613C
:1010B0000020F04908600846006840F00100086020
:1010C00008E008F101001FFA80F8B8F1640F01DDB3
:1010D0000220C4E7E748001D006800F00100002876
:1010E000EFD0E4480068E3490860084600680860FB
:1010F0000846006808600846006840F01000086074
:101100000846006808600846006808600020D94961
:101110001C3108600846006840EA8970086008468B
:10112000006840EA046008600846006840EA05502C
:1011300008600846006840EA074008600846006802
:1011400030430860CB48006820F00100C9490860BE
:1011500009E008F101001FFA80F84FF6F0708045B1
:1011600001DD03207BE7C348001D006800F001009B
:101170000028EED1C048006840F00100BE49086078
:10118000BD481C30006820F00100BB491C310860DC
:10119000B9480C30006840F00100B7490C310860D4
:1011A000B548001D0068B449091D0860B2481430F4
:1011B0000068B149143108600020AF49403108602F
:1011C0000021AD4844300160AB481C30006840F05D
:1011D0000100A9491C310860A74800680020A64901
:1011E0000860A4481430006840F00200A14914319E
:1011F00008600223142200210120FFF7E5F80020F7
:101200002DE7F0B505460E46059C9A480830006863
:1012100000F0806008B1002111E0964808300068B5
:1012200000F0006008B1012109E092480830006830
:1012300000F0805008B1022101E0FF20F0BD00273E
:101240008D48803800EB011007601EB9C5F30A0510
:101250006D0502E025F06045ED008748803800EB21
:10126000011000682843844F803F07EB0117386066
:101270008148803800EB0110006840EA86077E480C
:10128000803800EB011007607B48803800EB0110CC
:10129000006840EA42077848803800EB0110076098
:1012A00003F00F037448803800EB0110406820F011
:1012B0000F077148803800EB011047606E48803896
:1012C00000EB0110406818436B4F803F07EB01179C
:1012D0007860E0790006A77940EA0740677940EA3C
:1012E0000727207907436448803800EB0110C76066
:1012F000E0780006A77840EA0740677840EA0720D0
:10130000277838435C4F803F07EB0117B8605A4895
:10131000803800EB0110006840F001075648803823
:1013200000EB01100760084688E70146002021B164
:10133000012916D002293CD127E04E4A0832126812
:1013400002F0010210434B4A0832126802F0020216
:101350001043484A0832126802F0806240EA126084
:1013600029E0444A0832126802F001021043414A5F
:101370000832126802F0020210433E4A0832126834
:1013800002F0006240EA526015E03A4A0832126800
:1013900002F001021043374A0832126802F00202DA
:1013A0001043344A0832126802F0805240EA9260D8
:1013B00001E0052000BF00BF7047014629B92D4854
:1013C0000C30006800F003007047012905D129485E
:1013D0001030006800F00300F6E70020F4E7F0B5F5
:1013E000DDE90554244E503E06EB0016366806F043
:1013F0000406167016783EB91F4E503E06EB0016D6
:101400003668760D0E6006E01B4E503E06EB001669
:101410003668F6080E60184E503E06EB0016366829
:1014200006F002061E70144E503E06EB001676685B
:1014300006F00F062E70104E503E06EB0016B668F2
:1014400026700D4E503E06EB0016B668360A6670E2
:10145000094E503E06EB0016B668360CA670064ED6
:10146000503E06EB0016B668360E07E0001002404C
:10147000040801400064004000660040E670714EC0
:1014800006EB0016F66826716E4E06EB0016F6683F
:10149000360A66716B4E06EB0016F668360CA671BE
:1014A000684E06EB0016F668360EE67130B9664EE9
:1014B000366846F02006644F3E6009E0012807D1F7
:1014C000614E361D366846F020065F4F3F1D3E6078
:1014D000F0BD10B586B05D4802A903AB04AACDE902
:1014E000001005A90020FFF77AFF0598B0F5807F6E
:1014F0000AD1002405E05548005D55490855601C97
:10150000C4B2082CF7DB10E040F2011105988842C4
:101510000BD1082407E0A4F108004C49085C4C49B1
:101520000855601CC4B2102CF5DB06B010BDF8B530
:1015300005460E46002433460022114640F2016063
:101540000095FFF75EFE074601E0601C84B2384656
:10155000FFF7EBFE072803D040F6FF708442F4DB70
:1015600040F6FF70844201DB0120F8BD0020FCE75B
:1015700010B586B004460020FFF71FFF10B9002009
:1015800006B010BD02A803AB04AA05A9CDE900046A
:101590000020FFF724FF0598122805D19DF81000C0
:1015A00010B99DF80C0008B1002002909DF80800C9
:1015B000E6E7F8B505460E460024334600221146FC
:1015C00040F201700095FFF71CFE074601E0601C29
:1015D00084B23846FFF7A9FE072803D040F6FF7013
:1015E0008442F4DB40F6FF70844201DB0120F8BD49
:1015F0000020FCE7F8B506460D460024082300222B
:10160000114630460095FFF7FCFD074601E0601CDF
:1016100084B23846FFF789FE072803D040F6FF70F2
:101620008442F4DB40F6FF70844201DB0120F8BD08
:101630000020FCE730B504460D4629462046FFF75A
:10164000D9FF30BDB06500400C6400404E00002062
:10165000BC0000206349088000BF6249091F098857
:1016600001F040010029F8D070472DE9F05F0546F0
:101670000E46300100F04EFB81465B4905FB01F050
:1016800000F048FB8246494600F062FA07463846B9
:1016900000F020FB84B2204600F03CFB8346394634
:1016A00000F018FC82464FF0834100F047FB814672
:1016B00000F010FB80464FF6FF7000EA041404EBC4
:1016C000080084B24948806940F0080047498861B1
:1016D0000846C06940F48020C8614548006820F48D
:1016E0007F40434908600846006840F40B400860AA
:1016F0003F480830006840F480603D490831086088
:101700003A48006940F48020384908610846006979
:1017100020F4802008613348001D0480001D0088EB
:1017200042F20C0108432F4908310880084600881E
:1017300040F4807008800846008840F0200008804F
:101740000223272201211846FEF73EFEBDE8F09F46
:1017500010B52448001F008800F0200000283ED06B
:101760000020244908601F480088C4B2204600F0C9
:10177000D1FA214908602148007868B920480078EA
:10178000FE2809D11F480078FF2805D101201B49F8
:10179000087000201C49087018480078012817D1EB
:1017A0001A4819490978445417480078401C1649CA
:1017B00008700846007808280AD100200F490870F0
:1017C000134812490A6802604A6842608968816069
:1017D0000B4800780B4908700948047000BF0020CE
:1017E00010BD00000448004040420F0000100240BD
:1017F000040C01409001214244000020A000002080
:10180000B7000020B8000020B6000020CC00002067
:101810004E000020704700000FB4044910B503AA21
:10182000029800F0D3F810BC5DF814FBA80000206B
:101830002DE9F0410E460446002020622046E16872
:10184000884730B3252805D0D4E901219047206A84
:10185000401CF2E7E168204600278847050018D0C1
:10186000A5F14100192802D820354FF4006732460F
:10187000294620462760FEF773FC40B1012804D0BA
:10188000F61D26F007060836D8E7361DD6E72846A7
:10189000DAE7206ABDE8F0812DE9F0410646002430
:1018A00010687529314616A510D0AFF300800028C6
:1018B00002DA404213A507E031688A0701D512A574
:1018C00002E0490704D511A5012401E0AFF300802F
:1018D00000210A2206F1240709E0B0FBF2FCB0FB6C
:1018E000F2F302FB1C00303078541846491C0028E3
:1018F000F3D123462A463046BDE8F04100F00CB84B
:10190000000000002D0000002B000000200000005F
:1019100070477047704770472DE9F0470D4699466C
:101920009246044600F124080168880604D5E0695F
:1019300021F01001216000E00120A84201DD471BD9
:1019400000E00027A1697A1902EB0900081AA061DA
:101950002078C00602D42046AFF30080002608E0BD
:10196000D4E901211AF806009047206A401C761C31
:1019700020624E45F4DB2078C0060AD52046AFF33E
:10198000008006E0D4E9012130209047206A401C05
:101990002062381EA7F10107F4DC07E0D4E9012139
:1019A00018F805009047206A401C2062281EA5F107
:1019B0000105F3DC2046AFF300802078000602D555
:1019C0000220BDE8F0870120FBE70000074B70B55F
:1019D0000D467B4400F011F80446284600F020F83C
:1019E00010B14FF0FF3070BD204670BD85ECFFFF99
:1019F00001694A1C02610878704700B58FB0CDE9D3
:101A000001310021059105497944CDE903101146C2
:101A10006846FFF70DFF0FB000BD0000E5FFFFFFB8
:101A2000007B00F080007047754600F02BF8AE4652
:101A300005006946534620F00700854618B020B5DA
:101A4000FEF7B8FBBDE820404FF000064FF000075E
:101A50004FF000084FF0000B21F00701AC46ACE856
:101A6000C009ACE8C009ACE8C009ACE8C0098D46C3
:101A7000704710B50446AFF300802046BDE8104023
:101A8000FEF780BB00487047D804002090EA010FA1
:101A900048BF81F0004100F12E82421A3CBF801AFB
:101AA00089184FEAD0524FF07F4C1CEA410FA2EB4D
:101AB000D15318BF9CEA026F00F03B804FF0004CFE
:101AC0004CEA00204CEA012121FA03FC10EB0C0C3B
:101AD0001ED202F1FF325FEA1C2040EBC25038BF39
:101AE00070471CF07F0F4FEA400C18BFBCF17F4FCE
:101AF00038BF7047C3F12003994008BF20F00100B0
:101B0000BCF17F4F38BF7047A0F1C04000F0DDB995
:101B10004FEA3C00000A40EBC25028BF1CF0FF0F08
:101B20004FEA400CE6D018BFBCF17F4F38BF70477A
:101B3000EAE79CEA026F05D010EA5C0F08BF00F0EC
:101B40000040704710B500F07AF900BF64FBBE3E5C
:101B50004FF47F0C1CEAD0121EBF1CEAD11392EA8C
:101B60000C0F93EA0C0F00F0858090EA010F48BF3C
:101B700042F4807240F4000C41F400002CF07F41EC
:101B800020F07F4000B58142A2EB03020FF2081C57
:101B9000ACEB504EC0F100009EF800E04FEA4E0E54
:101BA00000FB0EFC38BF49004FEA2C1C02F5FA027C
:101BB0000CFB0EF34FEACE1E4FEA112C4FEAC12167
:101BC0000EEB635E42EB22420EFB0CFC4FEA1C5311
:101BD00000FB03114FEA112C4FEA01310EFB0CFC04
:101BE0004FEADC4C00FB0C11C14228BF09184CEB3A
:101BF00003335DF804EB10EB410143EBC250B2F547
:101C00007C0F38BF704729D512F0F00F1CBF00F1D0
:101C1000C04000F000407047008182838485868741
:101C200088898B8C8D8E8F919293959697999A9C9B
:101C30009D9FA0A2A3A5A7A8AAACAEB0B2B3B5B70A
:101C4000B9BCBEC0C2C5C7C9CCCED1D4D7D9DCDFE0
:101C5000E2E6E9ECF0F3F7FAFE0000004FEA400C90
:101C60000CF1807CBCF17E4F28BF7047B0F1C040C2
:101C700000F02BB990EA010F0CEAD11348BF42F4EF
:101C80008072624538BF634507D213F47F0F16D0C8
:101C900080EA010000F00040704710B500F0CFF876
:101CA000097EFC3E00F005B880EA010000F000402B
:101CB000704780EA010000F0004000F006B912F41D
:101CC0007F0F04BF0248704780EA010000F0FDB8B2
:101CD0000000C07FC10DD1F19E0206DB4FEA002358
:101CE00043F0004323FA02F07047004207D54FEA61
:101CF0004001B1F1FE4F02D24FF00000704710B525
:101D000000F09DF849922480002070476FEA20007F
:101D100070470000B0FA80F310FA03F2C3F19D039C
:101D20000AD0D90501EB1220530638BF704700F1E5
:101D3000010008BF20F00100704700004FF47F0C45
:101D40001CEAD0121EBF1CEAD11392EA0C0F93EAD0
:101D50000C0F00F0478090EA010F48BF42F48072F8
:101D60004FF0004C4CEA00204CEA012102EB030248
:101D7000A0FB0113A2F50002002918BF43F00103E4
:101D80005B0028BF4FEA330342EB22425FEA132C89
:101D90004CEBC2502EBFBCEB436FB2F57C0F7047CB
:101DA0004FEA036CBCF1004F08BF20F00100B2F510
:101DB0007C0F38BF70470BD582F0FF0212F5803FD1
:101DC000C8BF704700F1C040D8BF00F00040704766
:101DD00000F5000C5FEA4C0C48BF7047B0F1C04002
:101DE00000F073B890EA010F0CEAD11348BF42F437
:101DF0008072624538BF634504D280EA010000F07A
:101E00000040704710B500F01AF800BF8900013E8D
:101E100000F007B800F009B85FEA410C5FEA1C6CFB
:101E200008D080EA010000F050B85FEA400C5FEA99
:101E30001C6CF6D14FF00040A0F5800070470EF109
:101E4000020E2EF0030E5EF8044B244204D44FEA37
:101E50004102B2F17F4F11D84FEA4003B3F17F4FF7
:101E60000CD80ED14FEAD07CB2F17F4F0CEB4C0C6A
:101E70000CF1020C08BF4CEBD17C04E04FF0080CD5
:101E800001E04FEAD17C0CEB4C0324FA03F404F09C
:101E90000704B4F1040C06D20EEB840CBDE810402C
:101EA0004CF0010C6047DFE80CF0070802024FF02D
:101EB0000040A0F5800010BD0846420018BFD2F1D6
:101EC000807288BF00F0004010BDFF2141EAD05071
:101ED000C005704780F0004090EA010F7FF5DDAD4E
:101EE00081F0004100F007B890EA010F48BF81F08F
:101EF00000413FF5D2AD421A04D882F00042A0EB77
:101F0000020011444FEAD0524FF07F4C1CEA410FBF
:101F1000A2EBD15318BF9CEA026F4AD04FF0004C9D
:101F20004CEA00204CEA012121FA03FCB0EB0C0C36
:101F30000FD412F0FE0F36D05FEA4C001DD5001210
:101F400040EBC25038BF70471CF03F0F18BF7047BE
:101F50000BE0A2F101025FEA1C2040EBC25038BF47
:101F600070471CF07F0F18BF7047C3F120039940E2
:101F700014BF401E20F00100704780084FEA122372
:101F800008BF7047B0FA80FCA2EB0C02CCF1280C21
:101F900060FA0CF093EA122F04BF00EBC2507047B6
:101FA0004FEAC3707047130A5FEADC1008BF70473E
:101FB000F6E79CEA026F04D010EA5C0F08BF00202D
:101FC000704710B5FFF73BFF40DFF63E81F0004061
:101FD000704700000000000000000000000000004A
:101FE00000003F4000000000000000003000400002
:101FF00030004000000009000BC03D000BC03D0058
:10200000090018C024407FE0224031800000180001
:1020100024C01B000D803240018003801C402740FB
:102020001C8007400040100060000000000000001D
:1020300000000000000000001F8020404020000041
:10204000402020401F8000000000090006001F8083
:10205000060009000000040004003F8004000400A2
:1020600000000010006000000000000000000400FC
:102070000400040004000400000000000040000010
:10208000000000000000002001C0060038004000F1
:1020900000001F802040204020401F8000000000E2
:1020A00010403FC000400000000018C02140224006
:1020B00024401840000010802040244024401B8011
:1020C000000002000D0011003FC0014000003C80F4
:1020D000244024402440238000001F8024402440CA
:1020E0003440038000003000200027C0380020006A
:1020F00000001B802440244024401B8000001C0062
:1021000022C0224022401F80000000000000084042
:10211000000000000000000000000460000000005B
:102120000000000004000A00110020804040090067
:10213000090009000900090000000000404020805B
:1021400011000A0004001800200023402400180099
:1021500000001F802040274029401F400000004011
:1021600007C039000F0001C0004020403FC024409C
:1021700024401B8000001F802040204020403080F1
:10218000000020403FC0204020401F800000204031
:102190003FC024402E4030C0000020403FC02440BB
:1021A0002E00300000000F001080204022403380BD
:1021B000020020403FC0040004003FC020402040F7
:1021C00020403FC020402040000000602020202010
:1021D0003FC02000200020403FC024400B0030C002
:1021E000204020403FC020400040004000C03FC091
:1021F0003C0003C03C003FC0000020403FC00C40FA
:1022000023003FC020001F802040204020401F802E
:10221000000020403FC024402400180000001F8020
:102220002140214020E01FA0000020403FC024406A
:10223000260019C0004018C02440244022403180AC
:102240000000300020403FC020403000000020004F
:102250003F80004000403F80200020003E0001C041
:10226000070038002000380007C03C0007C03800D5
:102270000000204039C0060039C020400000200086
:10228000384007C0384020000000304021C02640C0
:10229000384020C00000000000007FE040204020C7
:1022A0000000000070000C000380004000000000EF
:1022B000402040207FE0000000000000200040009F
:1022C000200000000000001000100010001000109E
:1022D00000100000000040000000000000000000AE
:1022E00002800540054003C0004020003FC004407C
:1022F00004400380000000000380044004400640C6
:10230000000000000380044024403FC00040000063
:1023100003800540054003400000000004401FC04A
:10232000244024402000000002E0055005500650E3
:10233000042020403FC00440040003C000400000CF
:10234000044027C0004000000000001000100410EE
:1023500027E00000000020403FC00140070004C00B
:102360000440204020403FC000400040000007C023
:10237000040007C0040003C00000044007C004407C
:10238000040003C0004000000380044004400380B8
:102390000000041007F00450044003800000000017
:1023A00003800440045007F00010044007C00240BE
:1023B000040004000000000006400540054004C081
:1023C0000000000004001F800440004000000400E2
:1023D00007800040044007C000400400070004C01C
:1023E000018006000400060001C0070001C00600CD
:1023F0000000044006C0010006C0044000000410B4
:10240000071004E00180060004000000044005C03D
:102410000640044000000000000004007BE0402073
:102420000000000000000000FFF0000000000000BD
:1024300040207BE0040000000000400080004000DD
:10244000200020004000000000000000000000000C
:102450000000000000000000000000001FCC000C85
:1024600000000000000000000800300060000800CC
:10247000300060000000022003FC1E20022003FC4C
:102480001E200220000000000E1811043FFF1084DF
:102490000C78000000000F0010840F3800C007788F
:1024A00018840078000000780F8410C411240E985E
:1024B00000E40084000808006800700000000000CC
:1024C00000000000000000000000000007E01818F5
:1024D000200440020000000040022004181807E019
:1024E0000000000000000240024001800FF0018067
:1024F0000240024000000080008000800FF8008051
:102500000080008000000001000D000E00000000AF
:1025100000000000000000000080008000800080BB
:102520000080008000800000000C000C0000000013
:10253000000000000000000000060018006001809C
:10254000060018002000000007F00808100410041E
:10255000080807F000000000080408041FFC00043D
:1025600000040000000000000E0C101410241044A1
:1025700011840E0C000000000C181004110411044A
:1025800012880C700000000000E0032004240824DE
:102590001FFC0024000000001F9810841104110487
:1025A000108810700000000007F008881104110462
:1025B00018880070000000001C00100010FC1300C0
:1025C0001C001000000000000E381144108410841C
:1025D00011440E38000000000700088C104410441D
:1025E000088807F00000000000000000030C030C46
:1025F00000000000000000000000000101060000D3
:1026000000000000000000000080014002200410D3
:1026100008081004000002200220022002200220EC
:10262000022002200000000010040808041002200C
:1026300001400080000000000E001200100C106C21
:1026400010800F00000003E00C1813E4142417C4DA
:10265000082807D000000004003C03C41C400740C9
:1026600000E4001C000410041FFC110411041104F8
:102670000E880070000003E00C1810041004100411
:1026800010081C10000010041FFC1004100410049B
:10269000080807F0000010041FFC1104110417C4FF
:1026A00010040818000010041FFC1104110017C0CA
:1026B00010000800000003E00C181004100410447F
:1026C0001C780040000010041FFC10840080008073
:1026D00010841FFC10040000100410041FFC1004E0
:1026E00010040000000000030001100110011FFE93
:1026F00010001000000010041FFC1104038014647B
:10270000181C1004000010041FFC10040004000436
:102710000004000C000010041FFC1F0000FC1F0040
:102720001FFC1004000010041FFC0C04030000E058
:1027300010181FFC100007F0080810041004100403
:10274000080807F0000010041FFC1084108010809F
:1027500010800F00000007F0081810241024101C2F
:10276000080A07F2000010041FFC1104110011C038
:1027700011300E0C000400000E1C11041084108493
:1027800010441C3800001800100010041FFC100436
:1027900010001800000010001FF8100400040004CE
:1027A00010041FF8100010001E0011E0001C007043
:1027B00013801C0010001FC0103C00E01F0000E050
:1027C000103C1FC000001004180C163401C001C0DA
:1027D0001634180C100410001C00130400FC130421
:1027E0001C00100000000804101C10641084130466
:1027F0001C04101800000000000000007FFE4002D2
:10280000400240020000000030000C000380006025
:10281000001C0003000000004002400240027FFE56
:102820000000000000000000000020004000400008
:102830004000200000000001000100010001000133
:1028400000010001000100004000400020000000E5
:102850000000000000000000009801240144014431
:10286000014400FC000410001FFC00880104010466
:10287000008800700000000000700088010401045E
:1028800001040088000000000070008801040104B9
:1028900011081FFC0004000000F801440144014439
:1028A000014400C800000000010401040FFC1104F1
:1028B000110411001800000000D601290129012986
:1028C00001C90106000010041FFC00840100010082
:1028D000010400FC000400000104190419FC0004B8
:1028E00000040000000000000003000101011901C4
:1028F00019FE0000000010041FFC0024004001B479
:10290000010C010400000000100410041FFC00046E
:10291000000400000000010401FC0104010001FCAE
:102920000104010000FC010401FC0084010001001D
:10293000010400FC0004000000F80104010401048B
:10294000010400F80000010101FF008501040104F9
:10295000008800700000000000700088010401047D
:10296000010501FF00010104010401FC00840104D0
:10297000010001800000000000CC0124012401249A
:1029800001240198000000000100010007F8010483
:10299000010400000000010001F80004000400042C
:1029A000010801FC0004010001800170000C00100E
:1029B00001600180010001F0010C003001C0003015
:1029C000010C01F0010000000104018C0074017091
:1029D000018C01040000010101810171000E001849
:1029E00001600180010000000184010C01340144F8
:1029F0000184010C00000000000000000000010044
:102A00003EFC400240020000000000000000FFFF0A
:102A10000000000000000000400240023EFC0100F7
:102A20000000000000000000600080008000400006
:102A30004000200020000000582A0008000000206C
:102A4000BC00000028010008142B0008BC00002076
:102A50007C0A0000440100080100000000000100A1
:102A60000000000000000000000000000000000066
:102A70000000000000000000000000000000000056
:102A80000000000000000000000000000000000046
:102A90000000000000000000000000000000000036
:102AA0000000000000000000000000000000000026
:102AB0000000000000000000000000000000000016
:102AC0000000000000000000000000000000000006
:102AD00000000000000000000000000000000000F6
:102AE00000000000000000000A0C0F13181E250152
:102AF0000B0D1014191F263200000000000000000A
:102B00000000000000000000000059595858000063
:042B100000000000C1
:04000005080000ED02
:00000001FF
